:4000000000800020110000009D0D00009D0D000080B500AF024A034B1B68136000F0C2FEBC760040FA46004010B5054C237833B9044B13B10448AFF300800123237010BD03
:400040007081FF1F000000000C250000084B10B51BB108480849AFF300800848036803B910BD074B002BFBD0BDE81040184700BF000000000C2500007481FF1F0881FF1F0F
:400080000000000090B587B000AF0023FB750023BB7500237B6000233B6162B6FB7D052B00F2A88101A252F823F000BFC5000000EF00000043010000AB01000043020000EF
:4000C00009030000012001F03FFE01F031FA01F02BF901F00FFA322001F0CAFDFA7DBB7D1046194600F0DEFA0123FB758CE100200021002200F0F8FAFA7DBB7D104619469A
:4001000000F0D0FA002001F01FFE002001F05AFE012001F075FE002001F090FE01F042FE0346002B04D00523FB750123BB756BE101F028FE0346002B02D00223FB7563E163
:4001400062E1FA7DBB7D1046194600F0ABFA002001F038FE002001F053FE012001F06EFE002001F0F1FD00237B6001200021002200F0BAFA00F04CF903463B733B7B152BF5
:4001800002D90323FB750FE07B6801337B607B680A2B04D10523FB750223BB7504E04FF47A7001F065FDE0E72EE1FA7DBB7D1046194600F077FA012001F004FE012001F0EE
:4001C0001FFE002001F03AFE002001F0BDFD01F0E9FD0346002B1AD04FF47A7001F048FD00F03AF90346012B0CD1012001F0ACFD4FF47A7001F03CFD002001F0A5FD0423D5
:40020000FB7501E10523FB750323BB75FCE001F0B9FD0346002B0CBF01230023DCB200F0F7F80346152B94BF01230023DBB22343DBB2002B04D00123FB7500233B61E3E050
:40024000E2E0FA7DBB7D1046194600F02BFA012001F0B8FD002001F0D3FD012001F0EEFDFF23FB733B6901333B613B69642B05D900233B6100F0E4F80346FB7300F0F8F867
:400280000346FB7200F00EF90346BB7300F0FEF803467B735D4B1B889BB2012B03D10023BB7300237B73BB7B9AB27B7B9BB2012011461A4600F018FA01F064FD0346002B9E
:4002C00001D10123FB7501F06DFD0346002B01D10323FB75FB7BFF2B14BF01230023DCB200F0A2F80346002B0CBF01230023DBB22343DBB2002B06D00523FB750423BB7599
:4003000000233B6180E07FE0FA7DBB7D1046194600F0C8F9012001F055FD012001F070FD012001F08BFD002001F04CFD4FF47A7001F09EFC012001F045FD4FF47A7001F029
:4003400097FC002001F000FDBB7D012B09D101F029FD0346002B4CD10123FB750023BB7552E0BB7D022B0ED101F01CFD0346002B3FD101F007FD0346002B3AD10123FB7503
:400380000023BB7540E0BB7D032B09D101F00AFD0346002B2DD10323FB750023BB7533E0BB7D042B1FD1BB7B9AB27B7B9BB2012011461A4600F098F9C82001F059FC00F091
:4003C00033F80346002B04D00123FB750023BB750FE000F035F80346FF2B0AD10323FB750023BB7510E0BB7D062B02D10523FB750AE009E0012001F0E5FC012001F000FDC7
:40040000012001F01BFD00BF48E600BF9481FF1F80B400AF034B1B78DBB21846BD465DF8047B70478C81FF1F80B400AF034B1B78DBB21846BD465DF8047B70478E81FF1FE1
:4004400080B400AF034B1B78DBB21846BD465DF8047B70478F81FF1F80B400AF034B1B78DBB21846BD465DF8047B70479081FF1F80B400AF044B1B889BB2DBB21846BD4695
:400480005DF8047B704700BF9281FF1F80B400AF034B1B78DBB21846BD465DF8047B70479781FF1F80B400AF034B1B78DBB21846BD465DF8047B70479681FF1F80B584B073
:4004C00000AF7860396001F0DFFF0346FB733B6840F24722934200F08B80B3F5127F09DAB3F5007F6AD040F20122934261D0A62B3FD088E040F26652934210D040F266529F
:40050000934203DCB3F5916F67D07CE040F26662934236D040F2267293422ED073E07B68DA783C4B1A707B6801331B789BB21B029AB2394B1A807B681B789AB2364B1B885D
:400540009BB213439AB2344B1A807B6807331B789BB21B029AB2314B1A807B6806331B789AB22E4B1B889BB213439AB22B4B1A8049E02B4B01221A7045E02A4B01221A704E
:4005800041E07B68DA78284B1A707B6805331B789BB21B029AB2254B1A807B6804331B789AB2224B1B889BB213439AB21F4B1A8029E07B68DA781E4B1A7024E07B68033330
:4005C0001B789AB21B4B1A807B689A781A4B1A707B685A78194B1A7015E07B681A79184B1A70174B1B78DBB2184600F0F9F80AE07B685A79134B1A70124B1B78DBB2184619
:4006000000F096F900BFFB7B184601F041FF1037BD4680BD8C81FF1F9281FF1F9A81FF1F8D81FF1F8E81FF1F8F81FF1F9C81FF1F9081FF1F9481FF1F9681FF1F9781FF1FCC
:400640009881FF1FA481FF1F80B588B000AF786039603B683B6100233B7500237B750823BB750023FB7507F10803BB610023FB770CE0FB7FFA7F79680A44127807F12001FB
:400680000B4403F8182CFB7F0133FB77FB7F072BEFD907F11003184601F0B0F92037BD4680BD00BF80B584B000AF03460A46FB711346BB71FB793B72BB797B720023BB728B
:4006C0000023FB7200233B7300237B730023BB730023FB7307F10803184640F22661FFF7B3FF1037BD4680BD80B584B000AF0346FB710B46BB8013467B80FB793B72BB884C
:40070000DBB27B727B88DBB2BB720023FB7200233B7300237B730023BB730023FB7307F10803184640F26671FFF78EFF012001F09FFA1037BD4680BD80B500AF124B1B684B
:40074000002B0CBF01230023DBB21A460E4B1A600D4B1B68184600F0B9F90B4B1B68184600F0D8F9084B1B68184600F0F7F9064B1B68184600F016FA034B1B68184600F044
:4007800035FA00F07BF980BD7082FF1F80B500AF124B1B68002B0CBF01230023DBB21A460E4B1A600D4B1B68184600F0D3FA0B4B1B68184600F0AAFA084B1B68184600F0B3
:4007C00081FA064B1B68184600F058FA034B1B68184600F02FFA00F051F980BD7C82FF1F80B584B000AF0346FB71FA794B4B1B699A420ADA4A4B1B68002B06D0484B002247
:400800001A6001F0EDFC01F073FC0023FB60FA79444B1B689A4202DC0123FB603FE0FA79404B1B689A4207DDFA793E4B5B689A4202DC0223FB6032E0FA793A4B5B689A42C6
:4008400007DDFA79374B9B689A4202DC0323FB6025E0FA79334B9B689A4207DDFA79314BDB689A4202DC0423FB6018E0FA792D4BDB689A4207DDFA792A4B1B699A4202DA30
:400880000523FB600BE0264B1B68002B07D101F01FFC254801F092FC214B01221A60204B1B68002B37D10023BB6007E01F4ABB68012142F82310BB680133BB60BA68FB687A
:4008C0009A42F3DBFB68BB6007E0184ABB68002142F82310BB680133BB60BB68042BF4DD124B1B68184600F0F1F8104B5B68184600F010F90D4B9B68184600F02FF90B4B8E
:40090000DB68184600F04EF9084B1B69184600F06DF900F0B3F81037BD4680BD2081FF1F5C82FF1F0C81FF1F390700000882FF1F80B584B000AF0346FB71FA794B4B1B698A
:400940009A420ADD4A4B1B68002B06D0484B00221A6001F049FD01F0CFFC0023FB60FA79424B1B689A4202DD0523FB603FE0FA793E4B5B689A4207DDFA793C4B1B689A4243
:4009800002DC0423FB6032E0FA79384B9B689A4207DDFA79354B5B689A4202DC0323FB6025E0FA79314BDB689A4207DDFA792F4B9B689A4202DC0223FB6018E0FA792B4B19
:4009C0001B699A4207DDFA79284BDB689A4202DC0123FB600BE0264B1B68002B07D101F07BFC244801F0EEFC214B01221A60204B1B68002B37D10023BB6007E01E4ABB68E6
:400A0000012142F82310BB680133BB60BA68FB689A42F3DBFB68BB6007E0174ABB68002142F82310BB680133BB60BB68042BF4DD114B1B68184600F0FDF80F4B5B681846DD
:400A400000F01CF90C4B9B68184600F03BF90A4BDB68184600F05AF9074B1B69184600F079F900F00BF81037BD4680BD4881FF1F6882FF1F8D0700004482FF1F80B500AF01
:400A80004020002101F0F8F9052001F09BFA0B4B1B78184601F096FA094B1B78184601F091FA084B1B78184601F08CFA064B1B78184601F087FA01F04BFA80BDAC81FF1F72
:400AC000AD81FF1FAE81FF1FAF81FF1F80B485B000AF78600123FB737B68012B07D10C4B1A78FB7B1343DAB2094B1A700AE0FB7BDB43DAB2064B1B78DBB21340DBB2DAB2A0
:400B0000034B1A701437BD465DF8047B704700BFAC81FF1F80B485B000AF78601023FB737B68012B07D10C4B1A78FB7B1343DAB2094B1A700AE0FB7BDB43DAB2064B1B7875
:400B4000DBB21340DBB2DAB2034B1A701437BD465DF8047B704700BFAC81FF1F80B485B000AF78600123FB737B68012B07D10C4B1A78FB7B1343DAB2094B1A700AE0FB7BD9
:400B8000DB43DAB2064B1B78DBB21340DBB2DAB2034B1A701437BD465DF8047B704700BFAD81FF1F80B485B000AF78601023FB737B68012B07D10C4B1A78FB7B1343DAB239
:400BC000094B1A700AE0FB7BDB43DAB2064B1B78DBB21340DBB2DAB2034B1A701437BD465DF8047B704700BFAD81FF1F80B485B000AF78600123FB737B68012B07D10C4BB4
:400C00001A78FB7B1343DAB2094B1A700AE0FB7BDB43DAB2064B1B78DBB21340DBB2DAB2034B1A701437BD465DF8047B704700BFAE81FF1F80B485B000AF78602023FB73A7
:400C40007B68012B07D10C4B1A78FB7B1343DAB2094B1A700AE0FB7BDB43DAB2064B1B78DBB21340DBB2DAB2034B1A701437BD465DF8047B704700BFAF81FF1F80B485B060
:400C800000AF78600423FB737B68012B07D10C4B1A78FB7B1343DAB2094B1A700AE0FB7BDB43DAB2064B1B78DBB21340DBB2DAB2034B1A701437BD465DF8047B704700BFBB
:400CC000AC81FF1F80B485B000AF78604023FB737B68012B07D10C4B1A78FB7B1343DAB2094B1A700AE0FB7BDB43DAB2064B1B78DBB21340DBB2DAB2034B1A701437BD46D5
:400D00005DF8047B704700BFAC81FF1F80B485B000AF78600423FB737B68012B07D10C4B1A78FB7B1343DAB2094B1A700AE0FB7BDB43DAB2064B1B78DBB21340DBB2DAB2AC
:400D4000034B1A701437BD465DF8047B704700BFAD81FF1F80B485B000AF78604023FB737B68012B07D10C4B1A78FB7B1343DAB2094B1A700AE0FB7BDB43DAB2064B1B7802
:400D8000DBB21340DBB2DAB2034B1A701437BD465DF8047B704700BFAD81FF1F80B400AFFEE700BF80B586B000AF224B7B61224B3B61204B7B6135E03B691B68FB603B6909
:400DC0005B68BB603B699B683B6000237B600CE0FB681A68BB681A60BB680433BB60FB680433FB607B6804337B607A683B689A42EED13B69DB683B6000237B6008E0BB685D
:400E000000221A60BB680433BB607B6804337B607A683B689A42F2D13B6910333B617B69013B7B617B69002BC6D101F035FBFFF729F9FEE701000000F026000080B582B0C7
:400E400000AF174B174A1A60174A174B1B6843F40073136000237B600FE07B68032B04D8124A7B6852F8233000E0114B11497A6841F822307B6801337B607B682F2BECD976
:400E80000D4B1B78DAB20D4B1A700D4B094A1A6000F028F90B4B00221A600837BD4680BD0CED00E00004FA0514ED00E0000000009D0D00000080FF1FBC7600400481FF1F18
:400EC00008ED00E00081FF1F80B582B000AF78603960786800213A6801F00FFB0837BD4680BD00BF80B584B000AFF860B9607A60F868B9687A6801F0F5FA1037BD4680BDEE
:400F000080B483B000AF0346FB71FEE780B487B000AF7860396000233B6100237B6127E07B699B007A6813441B68BB60BB68FB73BB6823F0FF03BB6014E03B695B003A68E2
:400F400013441B781A46BB68134419463B695B003A6813445B780B703B6901333B61FB7B013BFB73FB7B002BE7D17B6901337B617B69282BD4D91C37BD465DF8047B704762
:400F800080B582B000AF344B3B221A80334B18221A70334B3B221A80324B18221A70324B09221A80314B1B221A70314B06221A70304B03221A70304B304A1278D2B21A7043
:400FC0002F4B08221A802F4B41F251221A800023FB7019237B6014E0FB785B00DAB22A4B1B78DBB203F00103DBB21343DBB203F00303FB704FF4F07001F03EFA7B68013BBB
:401000007B607B68002B02D0FB78032BE4D17B68002B02D10320FFF773FF1C4B4FF480721A801A4B07221A70194B00221A70194B48221A70154B00221A70174B02221A7061
:40104000164A164B1B78DBB243F00703DBB213700837BD4680BD00BF80400040824000408440004086400040884000408A4000400043004000420040A14600400801004968
:4010800022420040204200402542004004400040064000400840004001400040A243004080B483B000AF0B4B1B78FB710A4AFB7903F00703DBB21370084AFB791B09DBB254
:4010C0001370074B44221A700C37BD465DF8047B704700BFCF0100496E5800406F5800407658004080B586B000AF72B6544A544B1B78DBB243F00403DBB213700023FB75EB
:4011000013E0FA7D13465B0013445B004D4A13443B613B691A683B699B889BB210461946FFF7D2FEFB7D0133FB75FB7D092BE8D90023FB751CE0FA7D13469B0013445B006B
:40114000414A1344FB60FB681B68BB60FB685B687B60FB681A7A5B7A1B0213437B807B88B86879681A46FFF7BDFEFB7D0133FB75FB7D022BDFD94FF090403449FFF7C6FE22
:40118000334A334B1B78DBB243F00203DBB21370304A304B1B78DBB243F00203DBB213702D4A2D4B1B78DBB243F04003DBB213702A4A2A4B1B78DBB243F01003DBB213707B
:4011C000274828490A22FFF78DFE274827490A22FFF788FE264827490822FFF783FE264826490822FFF77EFE254826490822FFF779FE254825490822FFF774FE2448254929
:401200000822FFF76FFE244A234B1B78DBB243F00803DBB21370214B01221A70FFF7B0FE1E4B81221A701E4B01221A70FFF738FF1C4809490E22FFF755FE1837BD4680BD83
:40124000E8460040102500004C250000A40000480350014013500140A0430040C24300400051004038100048C0510040441000481251004050100048225100405810004812
:40128000325100406010004842510040681000486251004070100048224300400048004004000840B043004080B582B000AF0023FB710023BB7112E0BA7913465B00134495
:4012C0009B00174A1344184600F012FB0346002B02D00123FB7105E0BB790133BB71BB79072BE9D9FB79002B15D10023BB710FE0BB791B010B4A1344184600F083FA0346F6
:40130000002B02D00123FB7105E0BB790133BB71BB790F2BECD9FB7918460837BD4680BD6C250000CC25000080B582B000AF4FF4F0537B600123FB700123BB7001F0A4F8BF
:4013400003467B703D4A3D4B1B78DBB243F00103DBB213703A4A3A4B1B78DBB243F00103DBB213707B78184601F092F8354A354B1B78DBB223F00103DBB2137002E07B687C
:40138000013B7B607B68002B06D02E4B1B78DBB203F00103002BF2D17B68002B49D02A4B4FF480321A601020284900F083FC1020072100F0A7FC022000F0DAF80346002B56
:4013C0001CD1002000F0F6F80346002B16D10A2003210022002300F023F90346002B0DD1002000F087F90346002B07D1002000F0B7F90346002B01D10023BB70BB78002B28
:4014000017D1FFF751FF0346002B12D141F2010000F0DCF90346002B0BD10A4B00221A70084B1B78DBB203F00103002B01D10023FB70FB7818460837BD4680BDA64300406F
:40144000B643004010A0004080E100E0E119000080B582B000AF4FF410737B600123FB7001F012F80346BB701D4A1D4B1B78DBB243F00103DBB213701A4A1A4B1B78DBB234
:4014800043F00103DBB21370BB78184601F000F8154B41F201021A6000F04AF8134B4FF480321A60124A124B1B6843F00103136002E07B68013B7B607B68002B05D00C4B60
:4014C0001B6803F00103002BF3D07B68002B01D00023FB70FB7818460837BD4680BD00BFA6430040B643004000A0004000E100E010A0004080B582B000AF0023FB710B4B1A
:401500001B78002B03D1FFF70FFF0346FB71FB79002B06D1054B01221A70FFF799FF0346FB71FB7918460837BD4680BD8082FF1F80B483B000AF0123FB710C4A0B4B1B7854
:40154000DBB243F00103DBB21370084B1B78DBB203F00103002B01D00023FB71FB7918460C37BD465DF8047B704700BF04A0004080B485B000AF0346FB800223FB73FB886A
:401580001BB2002B0CDB0123FB73094AFB881380074B1B889BB2FA889A4201D10023FB73FB7B18461437BD465DF8047B704700BF16A0004080B485B000AF0346FB710123FB
:4015C000FB73FB79002B11D1144A144B5B78DBB223F01003DBB25370104B5B78DBB203F01003002B13D10023FB7310E00B4A0B4B5B78DBB243F01003DBB25370074B5B7852
:40160000DBB203F01003002B01D00023FB73FB7B18461437BD465DF8047B704714A0004090B484B000AF0446084611461A462346FB710346BB710B467B7113463B710223C2
:40164000FB73FB79012B4CD9FB790F2B49D8BB79012B02D9BB79072B05D93B79002B40D1BB79012B3DD17B79032B3AD87A79FB799A4236D87A79BB799A4232D80123FB7367
:401680001B4B5B78BB73BB7B23F00F03BB73BA7BFB791343BB73164ABB7B5370144B5B78DBB2BA7B9A421CD10023BB733B79002B01D00223BB73BB795B01DAB27B799B00F8
:4016C000DBB21343DAB2BB7B1343BB73084ABB7B1370074B1B78DBB2BA7B9A4201D10023FB73FB7B18461037BD4690BC704700BF14A0004080B485B000AF0346FB7101230B
:40170000FB73FB79002B11D1144A144B1B78DBB223F01003DBB21370104B1B78DBB203F01003002B13D10023FB7310E00B4A0B4B1B78DBB243F01003DBB21370074B1B7890
:40174000DBB203F01003002B01D00023FB73FB7B18461437BD465DF8047B704714A0004080B485B000AF0346FB710123FB73FB79002B11D1144A144B1B78DBB223F00103D4
:40178000DBB21370104B1B78DBB203F00103002B13D10023FB7310E00B4A0B4B1B78DBB243F00103DBB21370074B1B78DBB203F00103002B01D00023FB73FB7B18461437F0
:4017C000BD465DF8047B704714A0004080B485B000AF0346FB800123FB73094AFB881380074B1B889BB2FA889A4201D10023FB73FB7B18461437BD465DF8047B704700BF21
:4018000004A0004080B485B000AF78600123FB737B681B785A01354B13441A467B685B6843F0801313607B681B785A012F4B13441B6803F07F127B685B6823F080139A428A
:401840004DD17B681B785A01284B134410337A6892681A607B681B785A01244B134410331A687B689B689A4239D17B681B785A011E4B134414337A68D2681A607B681B780A
:401880005A011A4B134414331A687B68DB689A4225D17B681B785A01144B134418334FF0FF321A607B681B785A01104B134418331B68B3F1FF3F12D17B681B785A010B4B57
:4018C00013441C3300221A607B681B785A01074B13441C331B68002B01D10023FB73FB7B18461437BD465DF8047B7047A0A0004080B485B000AF78600123FB737B681B78A7
:401900001A011B4B13441A467B685B6843F4000343F0080313607B681B781A01144B13441B68144A1A407B685B6823F4000323F008039A4215D17B681B781A010C4B13447D
:4019400004337A6892681A607B681B781A01084B134404331A687B689B689A4201D10023FB73FB7B18461437BD465DF8047B704720A00040F7007F0080B582B000AF012364
:40198000BB80144B10225A700023FB711BE0124B1B889AB2BB8813409BB2002B0DD0FB795A010E4B13441B78DBB203F02003002B03D0FB79184600F0E1F8BB885B00BB80A9
:4019C000FB790133FB71FB790F2BE0D90837BD4680BD00BF00A0004008A00040A0A0004080B500AF044B5B78DBB203F01003002B01D0FFF7C1FF80BD00A0004080B487B013
:401A000000AF786000233B750123FB74A2E001237B750023FB7592E07B7D03F00303DBB2002B40F08280514B9B78DAB27B7D1340DBB2002B79D10023FB607B681B79002B9B
:401A400002D04FF40013FB607B685B79002B09D1FB7D1A01464B134404337A68126852051A600CE0FB6843F48013FB60FB7D1A013F4B134404337A681268D2001A607B689E
:401A80009B79072B06D87B689B791B04FA681343FB6003E0FB6843F40023FB607B68DB79002B03D0FB6843F00403FB600023BB7517E0FB7D1A012E4B1344BA7D032A03D9C4
:401AC000BA7DC2F10B0202E0BA7DC2F1030279688868B97D415C13440A461A72BB7D0133BB757B689B79BA7D9A4202D2BB7D072BDFD9204B4FF480321A60FB7D1A011C4BD7
:401B000013441A46FB6843F4000343F008031360FB7D1A01164B13441A4601231360164B4FF480321A600023FB747B7D5B007B75FB7C002B00D106E0FB7D0133FB75FB7DCC
:401B4000072B7FF669AFFB7C002B00D106E03B7D01333B753B7D022B7FF659AFFB7C18461C37BD465DF8047B704700BF08A0004020A0004080E100E000E100E0B0B58EB04D
:401B800000AF0346FB71FB795A01324B13441B78DBB203F00103002B59D0FB795A012D4B13449B78DBB203F010031B11002B07D0FB795A01274B134404331B68DB0806E026
:401BC000FB795A01234B134404331B685B0D3B63FB795A011F4B134407F108041D4628686968AA68EB680FC428696969AA69EB690FC400237B6300237B6311E0FB795A01A2
:401C0000144B13447A6B134408331B78D9B207F128027B6B13440A461A707B6B01337B637B6B072BEADD07F128031846396BFEF745FCFB795A01074B1344FA795101054A62
:401C40000A441278D2B242F00102D2B21A703837BD46B0BDA0A0004080B483B000AF0346FB7101BE0C37BD465DF8047B704700BF80B582B000AF786008E00C4B1B6818463E
:401C800000F0FAFB7B68A3F500437B607B68B3F5004FF2D8064B1B687A6802FB03F3184600F0EAFB0837BD4680BD00BF6881FF1F6081FF1F80B584B000AF03463960FB717C
:401CC0000F4B1B68FB60FB791F2B02D90020FFF7C3FFFB7903F01F0310339B00FA6813441B68BB60FB7903F01F0310339B00FA6813443A681A60BB6818461037BD4680BD39
:401D000008ED00E080B582B000AF03460A46FB711346BB71BB79072B02D90020FFF79CFFFB791F2B02D90020FFF796FFFB7903F01F0303F1604303F56443BA795201D2B22F
:401D40001A700837BD4680BD80B485B000AF0346FB710B4B1B78DBB223F04003FB730849FB799B01DBB203F04003DAB2FB7B1343DBB20B701437BD465DF8047B704700BF37
:401D80001051004080B400AF054B1B78DBB203F002035B08DBB21846BD465DF8047B70473151004080B400AF054B1B78DBB203F00103DBB21846BD465DF8047B704700BF17
:401DC0003151004080B485B000AF0346FB710B4B1B78DBB223F04003FB730849FB799B01DBB203F04003DAB2FB7B1343DBB20B701437BD465DF8047B704700BF005100406D
:401E000080B485B000AF0346FB710B4B1B78DBB223F02003FB730849FB795B01DBB203F02003DAB2FB7B1343DBB20B701437BD465DF8047B704700BF0051004080B485B005
:401E400000AF0346FB710B4B1B78DBB223F01003FB730849FB791B01DBB203F01003DAB2FB7B1343DBB20B701437BD465DF8047B704700BF0051004080B485B000AF034696
:401E80000A46FB711346BB710223FB73294B1B78DBB2102B47D1284B1B78DBB203F01003002B3ED1254B02221A60FB795B00FB71BB79002B07D0FB7943F00103FB711D4B96
:401EC00049221A7002E01B4B45221A701C4AFB7913701C4B82221A701B4BFF221A701B4B00221A7000BF184B1B78DBB2002BFAD100BF114B1B78DBB203F00103002BF8D042
:401F00000D4B1B78DBB203F00A03DBB20A2B05D1084B10221A700323FB7304E00023FB7301E00123FB73FB7B18461437BD465DF8047B70478382FF1F6C64004080E100E0E5
:401F40000C6400407F6400401C6400405C64004080B483B000AF0223FB71154B1B78DBB203F00403002B1BD0124B52221A70124BFF221A70114B00221A7000BF0E4B1B7881
:401F8000DBB2002BFAD10E4B10221A7000BF084B1B78DBB203F02103002BF8D00023FB71FB7918460C37BD465DF8047B704700BF6C6400407F6400401C6400405C64004069
:401FC0008382FF1F80B485B000AF0346FB710223FB731E4B1B78DBB203F00403002B2ED01B4AFB7913701B4B06221A701A4BFF221A701A4B00221A7000BF174B1B78DBB2DC
:40200000002BFAD1164B46221A7000BF0F4B1B78DBB203F00103002BF8D00C4B1B78DBB203F00203002B05D10D4B60221A700023FB7304E00A4B60221A700323FB73FB7B80
:4020400018461437BD465DF8047B70476C6400400C6400407F6400401C6400405C6400408382FF1F80B582B000AF41F2873000F06BF841F2873000F083F800F005FA034683
:40208000FB710A4A094B1B78DBB243F01003DBB21370FB79184600F0FBF900F081F8002000F036F80837BD4680BD00BF9965004080B400AF054A054B1B78DBB263F07F0346
:4020C000DBB21370BD465DF8047B70477964004080B500AF054B1B78002B04D1FFF7C2FF024B01221A70FFF7E3FF80BD8182FF1F80B400AF054A054B1B78DBB203F07F0360
:40210000DBB21370BD465DF8047B70477964004080B483B000AF0346FB71044AFB7913700C37BD465DF8047B704700BF8965004080B400AF034B1B78DBB21846BD465DF80F
:40214000047B70476965004080B483B000AF0346FB80044AFB8813800C37BD465DF8047B704700BF506A004080B400AF034B1B889BB21846BD465DF8047B7047906A00400C
:4021800080B483B000AF0346FB80044AFB8813800C37BD465DF8047B704700BF106A004080B500AF01E0FFF7DFFFFFF7C1FF034603F00803002BF6D180BD00BF80B582B0AC
:4021C00000AF786000F046F8786800F013F8072000F022F800F032F80837BD4680BD00BF80B500AF00F036F8014800F003F880BD9D0D000080B485B000AF7860054B1B68E6
:40220000FB60FB6848337A681A601437BD465DF8047B704708ED00E080B483B000AF0346FB71054AFB795B01DBB213700C37BD465DF8047B704700BF02E400E080B400AF28
:40224000034B04221A60BD465DF8047B704700BF00E100E080B400AF034B04221A60BD465DF8047B704700BF80E100E080B582B000AF41F2873000F06BF841F2873000F0D6
:4022800083F800F001F90346FB710A4A094B1B78DBB243F01003DBB21370FB79184600F0F7F800F081F8002000F036F80837BD4680BD00BF9465004080B400AF054A054B95
:4022C0001B78DBB263F07F03DBB21370BD465DF8047B70477664004080B500AF054B1B78002B04D1FFF7C2FF024B01221A70FFF7E3FF80BD8282FF1F80B400AF054A054B00
:402300001B78DBB203F07F03DBB21370BD465DF8047B70477664004080B483B000AF0346FB71044AFB7913700C37BD465DF8047B704700BF8465004080B400AF034B1B78C3
:40234000DBB21846BD465DF8047B70476465004080B483B000AF0346FB80044AFB8813800C37BD465DF8047B704700BF4C68004080B400AF034B1B889BB21846BD465DF842
:40238000047B70478C68004080B483B000AF0346FB80044AFB8813800C37BD465DF8047B704700BF0C68004080B500AF01E0FFF7DFFFFFF7C1FF034603F00803002BF6D1A9
:4023C00080BD00BF80B582B000AF786000F046F8786800F013F8072000F022F800F032F80837BD4680BD00BF80B500AF00F036F8014800F003F880BD9D0D000080B485B0DB
:4024000000AF7860054B1B68FB60FB6854337A681A601437BD465DF8047B704708ED00E080B483B000AF0346FB71054AFB795B01DBB213700C37BD465DF8047B704700BF69
:4024400005E400E080B400AF034B20221A60BD465DF8047B704700BF00E100E080B400AF034B20221A60BD465DF8047B704700BF80E100E0000000000230800803D000BFD1
:4024800001380046FCD17047EFF3108072B6704780F31088704700BF0E4B70B51E460E4C0025E41AA410A54204D056F8253098470135F8E700F00AF9084B094C1E46E41AE5
:4024C000A4100025A54204D056F8253098470135F8E770BDD8260000D8260000D8260000E026000010B5431E0A44914204D011F8014B03F8014FF8E710BD034602449342B9
:4025000002D003F8011BFAE77047000000000000004F00400C00505100401000F05100401000800001400002000301408007000B0140000500140140000800400140000A36
:40254000004C0140000200500140200000000140B80E0048800080020140380F00488000800A0140B80F00488000000000000000000001000000C0C4010000000000080092
:402580000000C0EC0200000000000000000000000300000000000000000000000400000000000000000000000500000000000000000000000600000000000000000000005B
:4025C00007000000000000000000000000000000A8008000FFFFFFFF0000000001000000A8008000FFFFFFFF0000000002000000A8008000FFFFFFFF000000000300000062
:40260000A8008000FFFFFFFF0000000004000000A8008000FFFFFFFF0000000005000000A8008000FFFFFFFF0000000006000000A8008000FFFFFFFF0000000007000000F4
:40264000A8008000FFFFFFFF0000000008000000A8008000FFFFFFFF0000000009000000A8008000FFFFFFFF000000000A000000A8008000FFFFFFFF000000000B000000A4
:40268000A8008000FFFFFFFF000000000C000000A8008000FFFFFFFF000000000D000000A8008000FFFFFFFF000000000E000000A8008000FFFFFFFF000000000F00000054
:4026C000A8008000FFFFFFFF00000000F8B500BFF8BC08BC9E4670474D0000003D0E0000F8B500BFF8BC08BC9E46704729000000002700000881FF1F6800000018010000A8
:402700000000000040000000450000005000000055000000600000003C00000064000000730000008700000091000000320000003C00000046000000500000005A00000086
:402740003200000023000000190000000F0000000A00000000366E01C05D0000180000000000E02E00000000000000000000000000000000000000000000000000000000EA
:402780000000000000000000000000000000000000000000000000000000000000000000000000000000000000000000000000000000000000000000000000000000000019
:4027C00000000000000000000000000000000000000000000000000000000000000000000000000000000000000000000000000000000000000000000000000000000000D9
:402800000000000000000000000000000000000000000000000000000000000000000000000000000000000000000000000000000000000000000000000000000000000098
:402840000000000000000000000000000000000000000000000000000000000000000000000000000000000000000000000000000000000000000000000000000000000058
:020000040003F7
:0200000480007A
:40000000024F00400552004007640040046500402A0001403A010140260201404A030140180501406606014054070140540801404C090140280A0140560B01404F0C0140DB
:40004000560D0140490E0140380F0140451401404C1501404A1601405B17014068180140561901406A1A0140481B01400D4001400A4101401042014005430140094401408E
:40008000084501400246014002470140074801400E490140024C0140064D0140085001400251014001200A4B10401C03248060226437230F280F2C0433083808810D8B0D47
:4000C0002704840D890D8B0D82018D0195019B029F02A101A501A601A901B001B101B702B902BF41C013C5ECC702C813C9FFCAFFCBFFCD83CE03CF01D018D401D804D904D7
:40010000DA04DB04DC02DD22DF01E040E240E440E540E680E880EA80EC80EE800080012802010740084009880A880B60100A12941420184219201E402101223426422848AA
:400140002B212C482F103108325034283740388039023A043B103F4040204348442047404D044F0157085D045E805F01818082408620871189098C098E01C017C20FC42F30
:40018000CAEFCC7ECE1FD05AD6D0E240E402E60907010801090E0A0E0B300D400F131003112A1204135415801756180719461BA91E10200121FF220824072533270C280612
:4001C0002A012C022E05321033FF340F3A205280580459045B045C115D205F01008001100220051009800A880C100E400F021008114412801401158116201710180419088C
:400200001D141E14220123042710280429842B412C102D012F403180321134013714384839553B203E603F0840044201500451085220774084408A0290409208932096801A
:4002400099209D089E109F40A180A202A448A680A842B108B204B320B408B680C047C2DBC4FFCACFCCEDCE7FD00CE002E680EA05844088088A018C108E409140921C93200A
:40028000958096E197809B109C149D809E309F04A188A448A680A744AF04B120E640E802010104020501080410021A011C0221012208240228082C0234073501360838A03C
:4002C00039203E10401649FF4AFF4BFF4F0150185280580459045A045B045C115D225F016040624064406540668068806A806C806E80802A8254870889028A018B048C80FD
:400300008D208E56904692A9931094339520960C98FF99029B049C0E9E309F08A101A710A840A920AA13AD01B0FFB120B307B510B708B90ABF54C016C5ECC702C813C9FF6E
:40034000CAFFCBFFCD83CE03CF01D018D280D804D904DA04DB04DD22DF01E040E240E440E540E680E880EA80EC80EE80008001100280071409800A880B200D600E400F0A85
:40038000100814021502162017201A801C081E011F4020802104222023012704280929082B802F803010310A3340380839403A203E013F044340474049054A084C0450046C
:4003C000520858085A087102734077408501880189208B449150921C93209420958096E0978099089B309C549D809E309F04A008A188A440A6A0A744A908AF20B110B22002
:40040000C06BC2DFC4F2CA8FCC0FCECED018D224E602EE040010020B060B072008080A020C020D060E0911011214130414011702180F19051B0A1C031D011F02201F210F55
:4004400024012501270229082A012B052C032F10301F351F3720404646024705481449FF4AFF4BFF4C424DA04E705008511052F6580459045A045B045C015D115F0161483F
:4004800062406348648065486680674880FF8604881A8A608CA58E4A900294CC96139AB59CA99E54A201A404AA02AC4DAE92B0FFBE01D280D804DB04DD20DF0101890304F1
:4004C0000420058006A008A209540C280E811008124113081402150117181A401E80269027012C442D042F013401361437403C043D404004412045014C04544055086F18F5
:4005000071027408764A77088708884089088A038B149080914492089302940495019602972098459B409C209D10A001A120A204A690AB20B080B108B202C0FFC2FFC4FFDE
:40054000CAF0CCF0CE50D080D220E020E480E620E820EA8002060302060608020A0C10041202150118021A051E06200222082D0130013302340E350139203A20406249FF00
:400580004AFF4BFF4F015018580459045A045D025F016040624064406540668068806A806C806E8000040120028004080540068007080A8A0C100D080E42106013081510AB
:4005C00016021705188019201A801E0422242540260829402C042D0C2E802F023108341035403615370838023A103B203C203D403E444320451046104B204D024F0455107A
:4006000057205C805D025F04882089408A088E018F40900A9110924093029501984599489B059C209D109F48A011A128A302A621AD02AE01AF08B104C0FEC2FBC4F8CA7835
:40064000CCF2CE71D064D204D6D0E010E6A0E820013A0201030404020501084D09010A920CFF0D220F05101A111012601307150116B518A519031A4A1CCC1D7F1E132108E2
:40068000220423072404250329402A022B072CA92D052E542F7830FF377F3E013F4040144405450D470B481149FF4A7F4BFF4C424DA04E70500C54205604580459045A0491
:4006C0005B045F0161096240630964306509800181018C0192019E02A001A401A501AC01B003B701B980D804D904DC10DF010341040805400640071809400A400C040D088A
:400700000E420F081040114013081401151017251AC01F012002254028212B032C042D082E41344035403601371439013D583F0245824C114D0856085C125D045E806510E0
:400740006680678085088A808B40901A914094209681980299409A409B259C409E089F40A010A1A4A240A306A508A620A801A920AA10AE08B0C2B140B420B540B704C0F921
:40078000C2F9C4FDCAF2CCF0CEF1D090D210D6F0D8B0E420E680E8C8EE2000030401060609010B020E03120316031A031C0320012101220423062C022E0932073303350489
:4007C00036083A08580459045F0180408114821483208403850C8701880389018A208C4F8D048F3090909130920B930C94019502984299029A099B3C9C489D3F9E02A01FF1
:40080000A104A401A508A924AA01AB10AC40AD38AE0BAF04B01FB33EB501B6E0B880B908BE40D2F6D804D904DB04DF01008001080340042405810702082009080A810D407A
:400840000E400F181042133014401754181219081C811D811F0220202120240C260828802D802E0A2F083541362839103C043D403E116D086E206F1076427725824083021F
:400880008650880289108D408E408F48C0FDC2FFC4F9CAF1CCF0CEF4E0A0E45000020502071009020B040E021102131C150A160219081A031B021F01250A290A2A022D08A4
:4008C0002F02311E3402350136013B023E105401580459045B045C115D205F018401851087408B308D208F12900191049308973099309C019D109F60A104A309A401A73042
:40090000A801AB30AD30B001B170B30CB501B702B802BB02BE01D420D604D804D904DB04DC10DD10DF010381062009200A130E400F0211201410171019201BC01F012120C1
:400940002211240125182690274028102A202B112E602F60328933103502375438043B103C043D083E803F2059455C905E05644065206702828087408B218C908D128E487C
:400980008F409214931094019660989099459A209B159C409D10A104A480A508A610A741AA80AB20B410B502B710C029C296C462CAFECCFFCE76D6FBD8B0E240EA0905039C
:4009C00006010A0F0D020E0F12041301140F17021A021B041E082103240F25022A082F023103360F37043E40580459045C105F0182048308850186028B028D028E019108E9
:400A00009202950499029D029E01A101A502A908AA04AD02B001B108B204B301B402B506B928BF14C063C401C5B0C6D0C80AC9FFCA7FCBFFCC42CDA0CE70D00CD804D90472
:400A4000DA04DC12DD01DF01E109E240E309E430E50900800108034005900620072109400B400C140E600F0212081408171418A01B201F8020102101222026012701281002
:400A800029202B812C102E402F403082310833103408361139223A803B043C083E8040014104480449224B1051306140630178807A018120822083248540884089018B8084
:400AC0008C428D049108921493C5942096609810990D9B549C449D809E20A004A208A520A7C1AA40AC12AE90B201C0EDC2F9C462CADFCCEFCE5FD00AD204E005E202E401CD
:400B0000E612E804EA02EE0A004001010207031E0410053F0607080809320A070B080C220D180E050F061003112213181401151C17221805192A1A781B101C7F1D01203A12
:400B40002204234024012506280129222C032D043560367F371F39803E40404349FF4AFF4BFF4F015018580459045A045C105D025F016040624064406540668068806A8056
:400B80006C806E808B038D01930197019B01AA01AB04AE01AF04B001B102B501B704BF50C042C5ECC620C80BC9FFCAFFCBFFCD83CE03CF01D018D401D804D904DA04DB04EC
:400BC000DC02DD22DF01E040E240E440E540E680E880EA80EC80EE80042005A006A007010CA90F8010021204148217181B021F4020082241266027042A502C102D402F44A5
:400C000031203205352036403705388039203C063D803E204102432045024650480449155210532059055A8078087908800481108280834085028640881A8A108C849080F9
:400C40009120924893089428960298809A0A9B189C029D909EA09F04A089A16AA420A515AA01AC80AD10AE50AF01B080B101C0F0C2F0C4F3CAFCCCF7CEFCD0C5D60BE0A0A7
:400C8000E660EC8000780202030204300501060109400B1D0C280E500FFF110D128015011613193D1A041BC21C081DE21E21215D23A2240826102708284029922A292B6038
:400CC0002C082D042E102FE0320735FF36F83A083F10405349FF4AFF4BFF4F015018580459045A045C015D025F016040624064406540668068806A806C806E808008821086
:400D000086308A288E109201941E98209A029C7EA020A204A640AA01B001B67EB880BE01C052C5ECC702C813C9FFCAFFCBFFCD83CE03CF01D018D280D401D804DA04DB04CC
:400D4000DC01DD22DF01E040E240E440E540E680E880EA80EC80EE80018002A00420054006A0088009200A500CA20D0810011128148015081604182019C01A101C401F80CF
:400D80002120289029402A2030A932A038203A8A4308460448024C024D044F01560457085C405D045F01740289408C108F8091089240942098919AAA9D809E04A088A11CC2
:400DC000A220A402A820AB04AF02B545B620C0FDC2FFC477CA0FCC0FCE0FD022D218D6D0E2C0E640E850EC400E013148358036083940800286018C08C280CCF0CE10E0103E
:400E0000E220308234408980954098089DC0A002A508A608CC7002101040580885408C80954098089C409D40A480A508A608C010C410D640E6109540A508A608AE10E84070
:400E400010801410722075088908C40CDC01DE04E0010C015D02AE20B090C204D601EA04EE0198019D0298019D02814084048D089540A508A608E6601240170470017404A0
:400E8000830486408C01A004AE08C430DC80DE20E090EA1098019D021902780198019D02C608DE02000708070A070C070E0310071A061C0700FF01EF0008007000280F024F
:400EC0001004E0000F0B001060001800702A0200100080017020010A202A5800000B0F40302044080F0000040F780004F0030000800820020000410013000000000000006D
:400F000000FFFFFF00000001180000000000000004040400000200014000400040408000800080008000800000000000000000000000000000000000000800200F010000D4
:400F4000100202040401080000081830000000003F080010100201040010080840000018000014184000201800383F004007000028200002000010102100000000005002D7
:400F800018FFFFFF42A070000810000000000000040404001000000100484048804880480000000000000000000000000000000000000000000000005D00A200000008101E
:400FC00040021D00E20100043D01C2000001FF0C0401E000920060080000020001000001010000040D01000400000003FF00001C00080080000010043200000000EC2000AD
:401000000BFFFFFF00830301180000000100000004040404002200014000400040408000800080008000800000000000000000000000000000000000700000707000000005
:4010400000000000330004003300330000000000004B4B000000000020404000400000000300000000000000800000000000000000010100000000000000000000000000D8
:401080000000000000000000000000000000000000000000000000000000000000000000000000000000000000000000000000000000000000000000000000000000000030
:4010C00000000000000000000000000000000000000000000000000000000000000000000000000000000000000000000000000000000000000000000000000000000000F0
:4011000000000000000000000000000000000000000000000000000000000000000000000000000000000000000000000000000000000000000000000000000000000000AF
:40114000000000000000000000000000000000000000000000000000000000000000000000000000000000000000000000000000000000000000000000000000000000006F
:0200000490006A
:0400000000004005B7
:0200000490105A
:04000000BC90ACAF55
:0200000490303A
:02000000CC41F1
:0200000490402A
:4000000000000000000000000000000000000000000000000000000000000000000000000000000000000000000000000000000000000000000000000000000000000000C0
:400040000000000000000000000000000000000000000000000000000000000000000000000000000000000000000000000000000000000000000000000000000000000080
:400080000000000000000000000000000000000000000000000000000000000000000000000000000000000000000000000000000000000000000000000000000000000040
:4000C0000000000000000000000000000000000000000000000000000000000000000000000000000000000000000000000000000000000000000000000000000000000000
:0200000490501A
:0C00000000012E12306900012E25FCAA20
:00000001FF