:400000000080002011000000FD160000FD16000008B5044B1A6803F53F5302331A6001F06FFB00BFFA46004010B5054C237833B9044B13B10448AFF300800123237010BDE6
:400040005881FF1F0000000024330000084B10B51BB108480849AFF300800848036803B910BD074B002BFBD0BDE81040184700BF00000000243300005C81FF1F0881FF1FF3
:400080000000000008B502F0CBF802F005F908BD2DE9F04383B00024019462B6FFF7F2FF264625461BE00125052418E0022416E0032414E00225052411E0032505240EE015
:4000C000002601240BE000260425052407E00025012404E00025012401E000250324B64B1B68642B06D9012000210A4600F038FA06250524052C00F25481DFE814F0060003
:400100003C0062009000C900040101F0BBFC01F053FE01F0C1FE00F091FA4FF47A7001F09FFF2046294600F0FFF9012001F0DAFF012000F033FA012000F058FA642001F034
:400140008FFF002000F052FA002000F027FA002001F0C8FF4FF47A7001F082FF01F09CFA00F0D0FD002000F041FA4FF47A7001F077FF0124B3E700200146024600F0F0F983
:4001800001F080FC01F018FE01F086FE2046294600F0CAF9002001F0A5FF002001F0BEFF012001F0C7FF002001F0D0FF01F0AEFF00287FF478AF01F0A1FF00287FF476AFE2
:4001C0008DE701F05FFC01F0F7FD01F065FE2046294600F0A9F9002001F0A0FF002001F0A9FF012001F0B2FF002001F07BFF00230193012000210A4600F0B2F900F0DEF83E
:4002000015283FF655AF019B01330193019B0A2B3FF450AF4FF47A7001F022FFE9E701F031FC01F0C9FD01F037FE2046294600F07BF9012001F072FF012001F07BFF00206F
:4002400001F084FF002001F04DFF01F05FFF98B14FF47A7001F004FF00F0C2F801287FF42CAF01F03FFF4FF47A7001F0F9FE002001F038FF042432E701F040FF814600F01F
:400280009DF8B9F1000F18BF15287FF619AF26E72046294600F048F9012001F03FFF002001F048FF012001F051FF0136642E04D900F090F88146002601E04FF0FF0900F05F
:4002C00095F800F09FF8074600F096F880460120B9B21FFA88F200F043F901F00FFF00B9012401F013FF00B9032400F06DF8B0FA80F04009B9F1FF0F18BF40F001000028AE
:400300007FF4E1AEEBE601F0BDFB01F055FD01F0C3FD2046294600F007F9012001F0FEFE012001F007FF012001F010FF002001F0F5FE4FF47A7001F093FE012001F0EEFE90
:400340004FF47A7001F08CFE002001F0CBFE012D05D101F0DBFE00283FF4B9AEBFE6022D0AD101F0D3FE00287FF4B9AE01F0C6FE00283FF4AFAEB2E6032D05D101F0C6FE38
:4003800000283FF4AAAEAAE6042D7FF4A8AE0120B9B21FFA88F200F0E3F8C82001F060FE9DE6012001F0BAFE012001F0C3FE012001F0CCFE93E600BF7481FF1F014B1878BC
:4003C000704700BF7C81FF1F014B9878704700BF7C81FF1F014BD878704700BF7C81FF1F014B1879704700BF7C81FF1F014BD888C0B270477C81FF1F014B187A704700BFA0
:400400007C81FF1F014B587A704700BF7C81FF1F70B582B004460D4602F042FF0646002305E0E15C02AA1A4402F8081C0133072BF7DDB5F5916F48D009DCB5F5007F39D0FF
:4004400040F201239D4231D0A62D44D11DE040F266639D4221D040F226739D4219D040F266539D4237D1E3781D4D2B7063781B02EB802378EB80A379AB72E88880B200F09D
:4004800043FBA87A00F0B2FE25E00122144B5A7021E00122124B9A701DE0E278104BDA702279DA72D87A00F097FF14E0E2780C4B1A7110E000220B4B1A609DF80220084B89
:4004C0005A729DF801201A7205E02279044B1A73187B00F0A1FD304602F0E6FE02B070BD7C81FF1F7481FF1F00B587B0039100238DF810308DF8113008228DF812208DF884
:40050000133001AA059206E0C15C06AA1A4402F8141C0133DBB2072BF6D903A801F0FCFC07B05DF804FB00BF00B583B08DF800008DF8011000238DF802308DF803308DF8C1
:4005400004308DF805308DF806308DF80730684640F22661FFF7C8FF03B05DF804FB00BF00B583B08DF800008DF801108DF8022000238DF803308DF804308DF805308DF8AF
:4005800006308DF80730684640F26671FFF7ACFF012001F065FD03B05DF804FB10B504464020002102F072F8052002F0DFF8012C0CD1772002F0DAF8772002F0D7F8772048
:4005C00002F0D4F8772002F0D1F80BE0002002F0CDF8002002F0CAF8002002F0C7F8002002F0C4F802F09AF810BD00BF10B504464020002102F0DCFA052002F04BFB012CC4
:400600000CD1772002F046FB772002F043FB772002F040FB772002F03DFB0BE0002002F039FB002002F036FB002002F033FB002002F030FB02F006FB10BD00BF08B501F0A9
:400640007FFE02F00FF94020002102F01FF8002002F08CF8002002F089F8002002F086F81F2002F083F81F2002F080F81F2002F07DF802F053F84020002102F007F80920ED
:4006800002F074F8552002F071F8552002F06EF8552002F06BF8552002F068F8552002F065F8552002F062F8FF2002F05FF8FF2002F05CF8FF2002F059F802F02FF8402081
:4006C000002102F075FA002002F0E4FA002002F0E1FA002002F0DEFA1F2002F0DBFA1F2002F0D8FA1F2002F0D5FA02F0ABFA4020002102F05DFA092002F0CCFA552002F0FF
:40070000C9FA552002F0C6FA552002F0C3FA552002F0C0FA552002F0BDFA552002F0BAFAFF2002F0B7FAFF2002F0B4FAFF2002F0B1FA02F087FA0020FFF730FF0020FFF746
:4007400055FF08BD10B54020002101F09FFF052002F00CF8074C207802F008F8607802F005F8A07802F002F8E07801F0FFFF01F0D5FF10BD8C81FF1F10B54020002102F08C
:4007800017FA052002F086FA074C207902F082FA607902F07FFAA07902F07CFAE07902F079FA02F04FFA10BD8C81FF1F012805D1054A137843F0010313707047024A137860
:4007C00023F00103137070478C81FF1F012805D1054A137843F0100313707047024A137823F01003137070478C81FF1F012805D1054A537843F0010353707047024A5378E1
:4008000023F00103537070478C81FF1F012805D1054A537843F0100353707047024A537823F01003537070478C81FF1F012805D1054A937843F0010393707047024A9378A0
:4008400023F00103937070478C81FF1F012805D1054A937843F0100393707047024A937823F01003937070478C81FF1F012805D1054AD37843F00103D3707047024AD37860
:4008800023F00103D37070478C81FF1F012805D1054AD37843F01003D3707047024AD37823F01003D37070478C81FF1F012805D1054A137843F0020313707047024A13781F
:4008C00023F00203137070478C81FF1F012805D1054A137843F0200313707047024A137823F02003137070478C81FF1F012805D1054A537843F0020353707047024A5378BE
:4009000023F00203537070478C81FF1F012805D1054A537843F0200353707047024A537823F02003537070478C81FF1F012805D1054A937843F0020393707047024A93787D
:4009400023F00203937070478C81FF1F012805D1054A937843F0200393707047024A937823F02003937070478C81FF1F012805D1054AD37843F00203D3707047024AD3783D
:4009800023F00203D37070478C81FF1F012805D1054AD37843F02003D3707047024AD37823F02003D37070478C81FF1F012805D1054A137843F0040313707047024A1378FB
:4009C00023F00403137070478C81FF1F012805D1054A137843F0400313707047024A137823F04003137070478C81FF1F012805D1054A537843F0040353707047024A537879
:400A000023F00403537070478C81FF1F012805D1054A537843F0400353707047024A537823F04003537070478C81FF1F012805D1054A937843F0040393707047024A937838
:400A400023F00403937070478C81FF1F012805D1054A937843F0400393707047024A937823F04003937070478C81FF1F10B5254CA068B0FA80F04009A060FFF797FEA06828
:400A8000FFF7A4FEA068FFF7B1FEA068FFF7BEFEA068FFF7CBFEA068FFF7D8FEA068FFF7E5FEA068FFF7F2FEA068FFF7FFFEA068FFF70CFFA068FFF719FFA068FFF726FF90
:400AC000A068FFF733FFA068FFF740FFA068FFF74DFFA068FFF75AFFA068FFF767FFA068FFF774FFA068FFF781FFA068FFF78EFFA068FFF79BFFA068FFF7A8FF0020FFF7B7
:400B000021FE10BD8C81FF1F38B57B4CA4FB0034E4097A4BDB685BB10025784BDD6002F0ADFB02F02BFB2846FFF790FFFFF70AFE002C59D0631E042B58D9A31F042B57D9F7
:400B4000A4F10B03042B55D9A4F11003042B53D9A4F11503042B51D9A4F11A03042B4FD9A4F11F03042B4DD9A4F12403042B4BD9A4F12903042B49D9A4F12E03042B47D921
:400B8000A4F13303042B45D9A4F13803042B43D9A4F13D03042B41D9A4F14203042B3FD9A4F14703042B3DD9A4F14C03042B3BD9A4F15103042B39D9A4F15603042B37D921
:400BC000A4F15B03042B35D9603C032C34D94B4BDB689BBB02F01CFB494802F041FB0122464BDA6000232AE0002328E0022326E0032324E0042322E0052320E006231EE0E3
:400C000007231CE008231AE0092318E00A2316E00B2314E00C2312E00D2310E00E230EE00F230CE010230AE0112308E0122306E0132304E0142302E0152300E000232F4A47
:400C4000D2683AB138BD2D4901EB820101200861024400E000229A42F5DB05E0274A02EB8302002111610133152BF7DD234C2069FFF79CFD6069FFF7A9FDA069FFF7B6FDB6
:400C8000E069FFF7C3FD206AFFF7D0FD606AFFF7DDFDA06AFFF7EAFDE06AFFF7F7FD206BFFF704FE606BFFF711FEA06BFFF71EFEE06BFFF72BFE206CFFF738FE606CFFF7DF
:400CC00045FEA06CFFF752FEE06CFFF75FFE206DFFF76CFE606DFFF779FEA06DFFF786FEE06DFFF793FE206EFFF7A0FE606EFFF7ADFEFFF727FD38BDF11976058C81FF1FEE
:400D00006D0A000008B50020FFF7FEFE322001F0A7F94FF49670FFF7F7FE322001F0A0F94FF41670FFF7F0FE322001F099F94FF46170FFF7E9FE322001F092F94FF4966000
:400D4000FFF7E2FE322001F08BF940F2DC50FFF7DBFE322001F084F94FF4E160FFF7D4FE322001F07DF940F63400FFF7CDFE322001F076F94FF41660FFF7C6FE322001F051
:400D80006FF940F68C20FFF7BFFE322001F068F940F6B830FFF7B8FE322001F061F940F6E440FFF7B1FE322001F05AF94FF46160FFF7AAFE322001F053F940F63C70FFF78D
:400DC000A3FE322001F04CF941F26800FFF79CFE322001F045F941F29410FFF795FE322001F03EF94FF49650FFF78EFE322001F037F941F2EC30FFF787FE322001F030F9F0
:400E000041F21850FFF780FE322001F029F941F24460FFF779FE322001F022F941F27070FFF772FE322001F01BF941F24460FFF76BFE322001F014F941F21850FFF764FE53
:400E4000322001F00DF941F2EC30FFF75DFE322001F006F94FF49650FFF756FE322001F0FFF841F29410FFF74FFE322001F0F8F841F26800FFF748FE322001F0F1F840F614
:400E80003C70FFF741FE322001F0EAF84FF46160FFF73AFE322001F0E3F840F6E440FFF733FE322001F0DCF840F6B830FFF72CFE322001F0D5F840F68C20FFF725FE3220A9
:400EC00001F0CEF84FF41660FFF71EFE322001F0C7F840F63400FFF717FE322001F0C0F84FF4E160FFF710FE322001F0B9F840F2DC50FFF709FE322001F0B2F84FF4966001
:400F0000FFF702FE322001F0ABF84FF46170FFF7FBFD322001F0A4F84FF41670FFF7F4FD322001F09DF84FF49670FFF7EDFD322001F096F80020FFF7E7FD322001F090F8AD
:400F400008BD00BF012805D1054A137943F0010313717047024A137923F00103137170478C81FF1F012805D1054A137943F0100313717047024A137923F0100313717047B8
:400F80008C81FF1F012805D1054A537943F0010353717047024A537923F00103537170478C81FF1F012805D1054A537943F0100353717047024A537923F0100353717047D1
:400FC0008C81FF1F012805D1054A937943F0010393717047024A937923F00103937170478C81FF1F10B50B4CA06EB0FA80F04009A066FFF7A7FFA06EFFF7B4FFA06EFFF73B
:40100000C1FFA06EFFF7CEFFA06EFFF7DBFFFFF7B3FB10BD8C81FF1F10B50446384B1B69984209DA374BDB6E33B10022354BDA6601F0EEFE01F06CFE314B5B699C4229DDE5
:4010400003DD2F4B9B699C4226DD2D4B9B699C4203DD2B4BDB699C4220DD294BDB699C4203DD274B1B6A9C421ADD254B1B6A9C4203DD234B5B6A9C4214DB224BDB6E9BB963
:4010800001F090FE204801F0B5FE01221D4BDA6600230AE0012308E0022306E0032304E0042302E0052300E00023164AD26E3AB110BD144901EB820101200867024400E09E
:4010C00000229A42F5DB05E00E4A02EB8302002111670133042BF7DD0A4C206FFFF732FF606FFFF73FFFA06FFFF74CFFE06FFFF759FFD4F88000FFF765FFFFF73DFB10BD06
:401100000C81FF1F8C81FF1FE50F0000012805D1054A937943F0100393717047024A937923F01003937170478C81FF1F012805D1054AD37943F00103D3717047024AD379C2
:4011400023F00103D37170478C81FF1F012805D1054AD37943F01003D3717047024AD37923F01003D37170478C81FF1F012805D1054A137943F0020313717047024A13794E
:4011800023F00203137170478C81FF1F012805D1054A137943F0200313717047024A137923F02003137170478C81FF1F10B50E4CD4F88400B0FA80F04009C4F88400FFF7CA
:4011C000A5FFD4F88400FFF7B1FFD4F88400FFF7BDFFD4F88400FFF7C9FFD4F88400FFF7D5FFFFF7C9FA10BD8C81FF1F10B504463E4B1B6998420BDA3D4BD3F888303BB1A8
:4012000000223B4BC3F8882001F094FE01F012FE364B1B689C422BDD03DD344B5B689C4228DD324B5B689C4203DD304B9B689C4222DD2E4B9B689C4203DD2C4BDB689C4205
:401240001CDD2A4BDB689C4203DD284B1B699C4216DD274BD3F88830A3B901F035FE254801F05AFE0122224BC3F8882000230AE0012308E0022306E0032304E0042302E0E2
:40128000052300E000231A4AD2F8882042B110BD174901EB82010120C1F88C00024400E000229A42F4DB06E0114A02EB83020021C2F88C100133042BF6DD0D4CD4F88C0034
:4012C000FFF724FFD4F89000FFF730FFD4F89400FFF73CFFD4F89800FFF748FFD4F89C00FFF754FFFFF748FA10BD00BF0C81FF1F8C81FF1FAD110000012805D1054A5379FF
:4013000043F0020353717047024A537923F00203537170478C81FF1F012805D1054A537943F0200353717047024A537923F02003537170478C81FF1F012805D1054A9379EB
:4013400043F0020393717047024A937923F00203937170478C81FF1F012805D1054A937943F0200393717047024A937923F02003937170478C81FF1F012805D1054AD379AB
:4013800043F00203D3717047024AD37923F00203D37170478C81FF1F10B50E4CD4F8A000B0FA80F04009C4F8A000FFF7A5FFD4F8A000FFF7B1FFD4F8A000FFF7BDFFD4F844
:4013C000A000FFF7C9FFD4F8A000FFF7D5FFFFF7D3F910BD8C81FF1F10B504463E4B9B6B98420BDA3D4BD3F8A4303BB100223B4BC3F8A42001F030FE01F0AEFD364B9B6AC7
:401400009C422BDD03DD344BDB6A9C4228DD324BDB6A9C4203DD304B1B6B9C4222DD2E4B1B6B9C4203DD2C4B5B6B9C421CDD2A4B5B6B9C4203DD284B9B6B9C4216DD274B5B
:40144000D3F8A430A3B901F0D1FD254801F0F6FD0122224BC3F8A42000230AE0012308E0022306E0032304E0042302E0052300E000231A4AD2F8A42042B110BD174901EBF2
:4014800082010120C1F8A800024400E000229A42F4DB06E0114A02EB83020021C2F8A8100133042BF6DD0D4CD4F8A800FFF724FFD4F8AC00FFF730FFD4F8B000FFF73CFF88
:4014C000D4F8B400FFF748FFD4F8B800FFF754FFFFF752F910BD00BF0C81FF1F8C81FF1F99130000012805D1054AD37943F02003D3717047024AD37923F02003D37170475F
:401500008C81FF1F012805D1054A137943F0040313717047024A137923F00403137170478C81FF1F012805D1054A137943F0400313717047024A137923F0400313717047E5
:401540008C81FF1F012805D1054A537943F0040353717047024A537923F00403537170478C81FF1F012805D1054A537943F0400353717047024A537923F0400353717047A5
:401580008C81FF1F10B50E4CD4F8BC00B0FA80F04009C4F8BC00FFF7E5FFD4F8BC00FFF7D1FFD4F8BC00FFF7BDFFD4F8BC00FFF7A9FFD4F8BC00FFF795FFFFF7DDF810BD4C
:4015C0008C81FF1F10B5A0F15103DBB2122B21D9A0F13D03DBB2122B1ED9A0F12903DBB2122B1BD9A0F11503DBB2122B18D90B38C0B2082816D9264BD3F8C030A3B901F094
:401600007FFD244801F0A4FD0122214BC3F8C02000230AE0052308E0042306E0032304E0022302E0012300E00023194AD2F8C02042B110BD164901EB82010120C1F8C4006B
:40164000024400E000229A42F4DB06E0104A02EB83020021C2F8C4100133042BF6DD0C4CD4F8C400FFF77EFFD4F8C800FFF76AFFD4F8CC00FFF756FFD4F8D000FFF742FFDC
:40168000D4F8D400FFF72EFFFFF776F810BD00BF8C81FF1F8515000008B54020002101F087FA012001F0F6FA772001F0F3FA01F0C9FA3B20FFF7B0FC4FF4FA7000F0D0FC71
:4016C0003B20FFF793FD4FF4FA7000F0C9FC3B20FFF782FE4FF4FA7000F0C2FC6320FFF771FF4020002101F063FA012001F0D2FA002001F0CFFA01F0A5FA08BDFEE700BF12
:4017000008B5104E104D16E029686B68AC68002204E051F8040B43F8040B0432A242F8D1E868002203E0002143F8041B04328242F9D11035013E002EE6D101F0B9FDFEF79F
:40174000A7FCFEE701000000E834000008B5124A124B1A60124A136843F40073136000230AE0032B03D80F4A52F8231000E00E490E4A42F8231001332F2BF2D90C4B1A78B6
:401780000C4B1A70094A0C4B1A6000F0D1F800220A4B1A6008BD00BF0004FA050CED00E014ED00E000000000FD1600000080FF1FBC7600400481FF1F08ED00E00081FF1FFF
:4017C000FEE700BFF0B40022174611E050F82760F3B226F0FF0608E001EB420511F812406D78A5550132013BDBB2002BF4D10137292FEBD9F0BC7047064B1B78DBB203F046
:401800000701054A11701B09013213704422034B1A707047CF0100496E5800407658004008B50A46002101F074FD08BD38B53B22344B1A80192334490B7002310A80334AAE
:4018400013700922324B1A801B2202331A70062203F276231A7043F21332EE3B1A80023B05221A701B7843F2C82404E04FF4F07001F00EFD013C24B1264B1B7813F0800F5D
:40188000F4D114B90120FFF79BFF40224FF040231A70202203F500731A704FF4E16222331A8041F25122023B1A80002419250CE0194B1B7803F0010343EA440404F0030482
:4018C0004FF4F07001F0E4FC013D0DB1032CEFD115B90320FFF774FF104B4FF480721A8007221A7000220E490A704820023108701A700222033B1A700A4A137843F00703BA
:40190000137038BD8040004082400040864000408840004010420040254200400440004006400040A243004008B501F0E7FC08BD70B572B63C4A137843F004031370002422
:401940000CE03A4963001A1952000A4423445B00C8589188FFF764FF0134E4B2072CF0D900240BE03149A3001A1952000A44106B516B8022FFF7D8FF0134E4B2002CF1D04A
:401980004FF090402A49FFF71DFF2A4A137843F0020313701032137843F002031370264C237843F040032370A2F58632513A137843F010031370214821490A22FFF7B4FF65
:4019C000204821490A22FFF7AFFF204820490822FFF7AAFF1F4820490822FFF7A5FF1F481F490822FFF7A0FF1E481F490822FFF79BFF1E481E490822FFF796FF1D4A13788D
:401A000043F0080313701C4E01253570FFF70EFF81233370194B1D70FFF7EEFE184821460E22FFF781FF70BDE846004028330000A800004803500140A043004000510040F8
:401A400080100048C05100408C100048F25100409810004812510040A010004822510040A810004832510040B010004862510040B810004822430040004800400400084051
:401A8000B0430040064B1A7842F001021A701B7813F0010F01D1012070470020704700BF04A0004008B501F0FBFB154A137843F0010313701032137843F00103137001F0C7
:401AC000F3FB41F201020F4B1A60FFF7DBFF4FF480320D4B1A600D4A136843F0010313604FF4107300E0013B23B1084A126812F0010FF8D00BB9012008BD002008BD00BF31
:401B0000A643004000A0004000E100E010A0004010F4004F07D1064B18801B889BB2834203D001207047022070470020704700BF16A0004050B90D4B5A7802F0EF025A7032
:401B40005B7813F0100F0CD001207047074B5A7842F010025A705B7813F0100F03D101207047002070470020704700BF14A0004030B4841EE4B20D2C28D88C1EE4B2052CC2
:401B800002D92BBB012925D1032A25D8824225D88A4225D8164C657805F0F005284360706478E4B284421DD10BB9002000E002204B01DBB29200D2B2134303430C4A1370BC
:401BC0001278D2B29A420FD001200EE002200CE002200AE0022008E0022006E0022004E0022002E0012000E0002030BC704700BF14A0004050B90D4B1A7802F0EF021A7000
:401C00001B7813F0100F0CD001207047074B1A7842F010021A701B7813F0100F03D101207047002070470020704700BF14A0004050B90D4B1A7802F0FE021A701B7813F0C2
:401C4000010F0CD001207047074B1A7842F001021A701B7813F0010F03D101207047002070470020704700BF14A00040044B18801B889BB2834201D001207047002070472E
:401C800004A0004003785B01214A416841F08011995003785B0199189A5802F07F12436823F080139A4228D183680B610278184B03EB421319698268914220D1C2685A61FB
:401CC0000278134B03EB42135969C268914218D14FF0FF329A6102780D4B03EB42139A69B2F1FF3F0FD10022DA610278084B03EB4213DB694BB1012070470120704701205F
:401D0000704701207047012070470020704700BFA0A0004001780901114A436843F4000343F008038B5003781B0199189B580D4A1A40436823F4000323F008039A420BD1C3
:401D400083684B600278064B03EB02135A6883689A4203D001207047012070470020704720A00040F7007F0038B5002409E004EB44039B000E481844FFF7CCFF28B9013452
:401D8000E4B2072CF3D9002500E001254DB10DE0084800EB0410FFF775FF30B90134E4B200E000240F2CF3D900E00125284638BD64330000C433000008B501F071FA324A74
:401DC000137843F0010313701032137843F00103137001F069FA2D4A137803F0FE0313704FF4F05300E0013B23B1284A127812F0010FF8D1002B3CD04FF48032244B1A60E8
:401E00001020244900F042F91020072100F052F90220FFF77DFE88B9FFF78CFE80B90A20032100221346FFF7A3FE58B9FFF7E2FE50B9FFF7FDFE48B1012308E0012306E06A
:401E4000012304E0012302E0012300E0002393B9FFF78AFF88B941F20100FFF707FF70B90A4B00221A701B7813F0010F09D0012008BD012008BD012008BD012008BD01208F
:401E800008BD002008BD00BFA643004010A0004080E100E0011F000008B5074B1B7813B9FFF78AFF00E0002020B90122024B1A70FFF7F8FD08BD00BF6482FF1F38B51022ED
:401EC0000C4B5A700125002410E00B4B1B881D4208D06301094A9B5C13F0200F02D0204600F088F86D00ADB20134E4B20F2CECD938BD00BF00A0004008A00040A0A000403C
:401F000008B5044B5B7813F0100F01D0FFF7D6FF08BD00BF00A00040F0B5012100265DE017F0030F4DD12F4B9B783B4249D103790BB14FF40013417931B92B4901EB021176
:401F4000046864054C6007E043F48013264901EB02110468E4004C6090F806E0BEF1070F02D843EA0E4E01E043F4002EC3790BB14EF0040E00230FE01B4901EB0214032BFB
:401F800002D9C3F10B0101E0C3F103018568ED5C21440D720133DBB28179994201D9072BEAD94FF48034114B1C6011010E4D4EF4000343F008034B5101234B510C4B1C6080
:401FC00000217B00DFB231B10132D2B201E001270022072AA4D919B10136F6B2022EF6D90846F0BD08A0004020A0004080E100E000E100E0F0B58BB04701174EBC19BB5D3B
:4020000013F0010F26D0A37813F0100F03D063684FEAD30C02E063684FEA535C02ADA646BEE80F000FC59EE80F0085E80F00002306E0E218117A0AAA1A4402F8281C0133C8
:40204000072BF6DD68466146FEF7E2F9BB5D43F00103BB550BB0F0BDA0A0004001BE704710B5044605E0084B186801F011F9A4F50044B4F5004FF6D8034B586800FB04F017
:4020800001F006F910BD00BF4881FF1F70B504460E46074B1D681F2802D90020FFF7DEFF04F01F04103455F8240045F8246070BD08ED00E038B504460D46072902D90020CA
:4020C000FFF7CCFF1F2C02D90020FFF7C7FF04F01F0000F1604000F564406D01EDB2057038BD00BF044A137803F0BF03800100F0400018431070704710510040024B18785B
:40210000C0F34000704700BF31510040024B187800F00100704700BF31510040044A137803F0BF03800100F0400018431070704700510040044A137803F0DF03400100F02D
:40214000200018431070704700510040044A137803F0EF03000100F0100018431070704700510040084A137843F0020313701032137843F00203137002F65932137843F0D9
:4021800001031370704700BFA3430040014B1870704700BF0F4F0040014B1878704700BF0F4F0040014B1880704700BF104F0040014B1880704700BF124F004008B5154A14
:4021C000137803F0010313700232137803F0FC031370114B1A7802F0CF021A701A7842F030021A701A7802F0F0021A701A7842F00F021A70094A137843F001031370632071
:40220000FFF7D0FF6320FFF7D3FF0820FFF7BEFF08BD00BF0C4F0040174F00400D4F004008B5054B1B7823B9FFF7C8FF0122024B1A70FFF797FF08BD6582FF1F08B501F01B
:402240002FF8044A13680133136001F02DF8FFF7A3FF08BD7481FF1F024B1B68C3F88800704700BF08ED00E04001C0B2014B1870704700BF12E400E04FF48022014B1A6065
:40228000704700BF00E100E04FF48022014B1A60704700BF80E100E008B5FFF7F5FF0448FFF7DAFF0720FFF7DFFFFFF7E5FF08BD3D22000038B50024144B1C70012503F5B0
:4022C0008B731D7000F0ECFF114A137843F01003137000F0E9FF0F220E4B1A70082210331A700D4B1D6020460721FFF7E3FE20460A49FFF7CBFE1022094B1A70094B1C7044
:40230000094B1C70094B1C7038BD00BF756400409B6500402765004080E100E0692300006D82FF1F7282FF1F7482FF1F7082FF1F024A137843F00203137070477564004092
:4023400008B5074B1B7823B9FFF7B4FF0122044B1A70FFF7EDFF0122024B1A6008BD00BF6682FF1F00E100E038B5AB4B1C78E4B2AA4B1B7813F0400F00F0788114F0010F3F
:4023800000F04081A54B1B78453B052B00F23781DFE813F006009200350135010600F80004F0DF0504F00A04082C50D19B4B1B78DBB2452B3DD19A4B1B7813F0FF0F16D0A1
:4023C000984B1B681B78DBB2974A13700622974B1A70FF229F331A70002240331A700122934B1A7046228D4B1A702C460AE1914B1B7813F0020F0CD08F4A137843F00A030E
:4024000013706022854B1A7001228C4B1A602C46F8E08B4A137843F0200313705222834B1A70FF229F331A70002240331A702C46E8E002227D4B1A70FF229F331A7000228F
:4024400040331A704A22754B1A702C46DAE00A2C2DD1794A137843F0A0031370754B1B7813F0020F13D06D4B1B7813F0080F01D0092300E00A23704A11780B431370602253
:40248000664B1A7001226D4B1A602C46BAE06C4A137843F0200313705222644B1A70FF229F331A70002240331A702C46AAE00020FFF7D4FD2C46A5E014F0020F3DD15C4B79
:4024C0001B78574A1278DBB2934216D2584A1378DBB254490968CB5CDBB253490B700621524B1970FF219F33197000214033197013780133DBB2137084E04E4B1B7813F0FA
:40250000020F0BD04C4A137843F00A0313706022424B1A700122494B1A6073E0484A137843F0200313705222404B1A70FF229F331A70002240331A7064E03E4B1B7813F030
:40254000020F0BD03C4A137843F09A0313706022324B1A700122394B1A6053E0384A137843F0200313705222304B1A70FF229F331A70002240331A702F4A137843F0900369
:4025800013703FE02F4A1378DBB22F49086826490978C9B2C15413780133DBB2137013782A4A1278DBB2934209D202221F4B1A70FF229F331A70002240331A7022E01D4BCD
:4025C0001B7813F0020F0BD01B4A137843F0090313706022114B1A700122184B1A6011E0174A137843F02003137012220F4B1A70FF229F331A70002240331A7002E00020D3
:40260000FFF72CFD14F0200F38D0044B1B7813F0080F1DD001231CE06B6500406D82FF1F7182FF1F8082FF1F04650040756400407082FF1F7C82FF1F7282FF1F80E100E0A8
:402640008B6500407482FF1F7882FF1F7382FF1F02230B4A11780B4313700A4A137803F0DF0313701022084B1A7038BD064B1B7813F0100F02D11022034B1A7038BD00BF45
:402680007282FF1F8B6500406D82FF1F1E4B1B78DBB2102B32D11D4B1B7813F0100F2FD101221B4B1A609040C0B221B110434922154B1A7002E04522134B1A70154B18700F
:4026C00082228F3B1A70FF229F331A70002240331A70114B1B7813F0FF0FFAD10B4B1B7813F0010FFAD0094B1B7803F00A030A2B08D11022044B1A70032070470220704702
:4027000001207047002070476D82FF1F6B65004080E100E004650040146500400F4B1B7813F0040F17D052220D4B1A70FF229F331A70002240331A700A4B1B7813F0FF0F55
:40274000FAD11022084B1A70044B1B7813F0210FFAD0002070470220704700BF6B65004075640040146500406D82FF1F164B1B7813F0040F26D0154B187006228F3B1A70DE
:40278000FF229F331A70002240331A70104B1B7813F0FF0FFAD146220E4B1A700A4B1B7813F0010FFAD0084B1B7813F0020F04D16022084B1A70002070476022054B1A7042
:4027C00003207047022070476B65004004650040146500406D82FF1F38B50024144B1C7001250C331D7000F05BFD124A137843F01003137000F058FD0F220F4B1A7008223D
:4028000010331A7002220D4B1A6028460721FFF751FC28460A49FFF739FC1022094B1A70094B1C70094B1C70094B1C7038BD00BF7F6400409B6400402B65004080E100E039
:402840008D2800008482FF1F9082FF1F8982FF1F9182FF1F024A137843F00203137070477F64004008B5074B1B7823B9FFF7B4FF0122044B1A70FFF7EDFF0222024B1A6099
:4028800008BD00BF6782FF1F00E100E038B5AB4B1C78E4B2AA4B1B7813F0400F00F0788114F0010F00F04081A54B1B78453B052B00F23781DFE813F006009200350135018C
:4028C0000600F80004F0DF0504F00A04082C50D19B4B1B78DBB2452B3DD19A4B1B7813F0FF0F16D0984B1B681B78DBB2974A13700622974B1A70FF2299331A70002240332E
:402900001A700122934B1A7046228D4B1A702C460AE1914B1B7813F0020F0CD08F4A137843F00A0313706022854B1A7002228C4B1A602C46F8E08B4A137843F02003137001
:402940005222834B1A70FF2299331A70002240331A702C46E8E002227D4B1A70FF2299331A70002240331A704A22754B1A702C46DAE00A2C2DD1794A137843F0A0031370F2
:40298000754B1B7813F0020F13D06D4B1B7813F0080F01D0092300E00A23704A11780B4313706022664B1A7002226D4B1A602C46BAE06C4A137843F0200313705222644BEE
:4029C0001A70FF2299331A70002240331A702C46AAE00020FFF742FB2C46A5E014F0020F3DD15C4B1B78574A1278DBB2934216D2584A1378DBB254490968CB5CDBB2534987
:402A00000B700621524B1970FF219933197000214033197013780133DBB2137084E04E4B1B7813F0020F0BD04C4A137843F00A0313706022424B1A700222494B1A6073E0EC
:402A4000484A137843F0200313705222404B1A70FF2299331A70002240331A7064E03E4B1B7813F0020F0BD03C4A137843F09A0313706022324B1A700222394B1A6053E0B0
:402A8000384A137843F0200313705222304B1A70FF2299331A70002240331A702F4A137843F0900313703FE02F4A1378DBB22F49086826490978C9B2C15413780133DBB270
:402AC000137013782A4A1278DBB2934209D202221F4B1A70FF2299331A70002240331A7022E01D4B1B7813F0020F0BD01B4A137843F0090313706022114B1A700222184B52
:402B00001A6011E0174A137843F02003137012220F4B1A70FF2299331A70002240331A7002E00020FFF79AFA14F0200F38D0044B1B7813F0080F1DD001231CE06B640040D8
:402B40008482FF1F9282FF1F9482FF1F086500407F6400409182FF1F9382FF1F9082FF1F80E100E08B6400408982FF1F8C82FF1F8882FF1F02230B4A11780B4313700A4A52
:402B8000137803F0DF0313701022084B1A7038BD064B1B7813F0100F02D11022034B1A7038BD00BF9082FF1F8B6400408482FF1F1F4B1B78DBB2102B33D11E4B1B7813F04C
:402BC000100F30D102221C4B1A604000C0B229B140F001004922164B1A7002E04522144B1A70164B18708222893B1A70FF2299331A70002240331A70114B1B7813F0FF0FFA
:402C0000FAD10C4B1B7813F0010FFAD0094B1B7803F00A030A2B08D11022054B1A700320704702207047012070470020704700BF8482FF1F6B64004080E100E008650040BF
:402C4000186500400F4B1B7813F0040F17D052220D4B1A70FF2299331A70002240331A700A4B1B7813F0FF0FFAD11022084B1A70044B1B7813F0210FFAD000207047022016
:402C8000704700BF6B6400407F640040186500408482FF1F164B1B7813F0040F26D0154B18700622893B1A70FF2299331A70002240331A70104B1B7813F0FF0FFAD1462265
:402CC0000E4B1A700A4B1B7813F0010FFAD0084B1B7813F0020F04D16022084B1A70002070476022054B1A7003207047022070476B64004008650040186500408482FF1F7B
:402D0000024A137843F080031370704779650040024A137803F07F031370704779650040014B1870704700BF8A650040014B1878704700BF6A650040014B1880704700BFD6
:402D4000526A0040014B188880B27047926A0040014B1880704700BF126A004008B501E0FFF7F0FFFFF7E2FF10F0080FF8D108BD08B541F28730FFF7DFFF41F28730FFF7D6
:402D8000E7FF00F08DFA064A137843F01003137000F08AFAFFF7E2FF0020FFF7C1FF08BD9A65004008B5054B1B7823B9FFF7E0FF0122024B1A70FFF7A3FF08BD6882FF1F3D
:402DC000014B1B689864704708ED00E04001C0B2014B1870704700BF02E400E00422014B1A60704700E100E00422014B1A60704780E100E010B50446FFF7F6FF2046FFF71B
:402E0000DFFF0720FFF7E2FFFFF7E8FF10BD00BF08B5FFF7E9FF0248FFF7D2FF08BD00BFFD160000024A137843F080031370704776650040024A137803F07F0313707047A2
:402E400076650040014B1870704700BF86640040014B1878704700BF66640040014B1880704700BF48680040014B188880B2704788680040014B1880704700BF086800400E
:402E800008B501E0FFF7F0FFFFF7E2FF10F0080FF8D108BD08B541F28730FFF7DFFF41F28730FFF7E7FF00F0FBF9064A137843F01003137000F0F8F9FFF7E2FF0020FFF77C
:402EC000C1FF08BD9664004008B5054B1B7823B9FFF7E0FF0122024B1A70FFF7A3FF08BD6982FF1F014B1B68D864704708ED00E04001C0B2014B1870704700BF03E400E007
:402F00000822014B1A60704700E100E00822014B1A60704780E100E010B50446FFF7F6FF2046FFF7DFFF0720FFF7E2FFFFF7E8FF10BD00BF08B5FFF7E9FF0248FFF7D2FFFA
:402F400008BD00BFFD160000024A137843F080031370704770640040024A137803F07F031370704770640040014B1870704700BF81640040014B1878704700BF616400407F
:402F8000014B1880704700BF40680040014B188880B2704780680040014B1880704700BF0068004008B501E0FFF7F0FFFFF7E2FF10F0080FF8D108BD08B541F28730FFF734
:402FC000DFFF41F28730FFF7E7FF00F069F9064A137843F01003137000F066F9FFF7E2FF0020FFF7C1FF08BD9164004008B5054B1B7823B9FFF7E0FF0122024B1A70FFF700
:40300000A3FF08BD6A82FF1F014B1B681865704708ED00E04001C0B2014B1870704700BF04E400E01022014B1A60704700E100E01022014B1A60704780E100E010B5044613
:40304000FFF7F6FF2046FFF7DFFF0720FFF7E2FFFFF7E8FF10BD00BF08B5FFF7E9FF0248FFF7D2FF08BD00BFFD160000024A137843F080031370704776640040014B1870CC
:40308000704700BF84640040014B1878704700BF64640040014B1880704700BF4C680040014B188880B270478C680040014B1880704700BF0C68004008B501E0FFF7F0FF30
:4030C000FFF7E2FF10F0080FF8D108BD08B541F28730FFF7DFFF41F28730FFF7E7FF00F0DFF8064A137843F01003137000F0DCF8FFF7E2FF0020FFF7C1FF08BD946400403A
:4031000008B5054B1B7823B9FFF7E0FF0122024B1A70FFF7ABFF08BD6B82FF1F014B1B685865704708ED00E04001C0B2014B1870704700BF05E400E02022014B1A60704737
:4031400000E100E02022014B1A60704780E100E010B50446FFF7F6FF2046FFF7DFFF0720FFF7E2FFFFF7E8FF10BD00BF024A137843F080031370704778650040024A137838
:4031800003F07F031370704778650040014B1870704700BF89640040014B1878704700BF69640040014B1880704700BF50680040014B188880B2704790680040014B18802A
:4031C000704700BF1068004008B501E0FFF7F0FFFFF7E2FF10F0080FF8D108BD08B540F2CF70FFF7DFFF40F2CF70FFF7E7FF00F057F8064A137843F01003137000F054F834
:40320000FFF7E2FF0020FFF7C1FF08BD9964004008B5054B1B7823B9FFF7E0FF0122024B1A70FFF7A3FF08BD6C82FF1F014B1B68D865704708ED00E04001C0B2014B18700C
:40324000704700BF07E400E08022014B1A60704700E100E08022014B1A60704780E100E010B50446FFF7F6FF2046FFF7DFFF0720FFF7E2FFFFF7E8FF10BD00BF08B5FFF77F
:40328000E9FF0248FFF7D2FF08BD00BFFD1600000230800803D000BF01380046FCD17047EFF3108072B6704780F31088704700BF0E4B70B51E460E4C0025E41AA410A54263
:4032C00004D056F8253098470135F8E700F0FAF8084B094C1E46E41AA4100025A54204D056F8253098470135F8E770BDD0340000D0340000D0340000D834000010B5431EE1
:403300000A44914204D011F8014B03F8014FF8E710BD03460244934202D003F8011BFAE77047000000000000004F0040180040510040200000000140800400050140000BB9
:4033400000140140000800400140000A004C0140000200500140200080040140001000488000000000000000000001000000C0C401000000000008000000C0EC020000004C
:4033800000000000000000000300000000000000000000000400000000000000000000000500000000000000000000000600000000000000000000000700000000000000F4
:4033C0000000000000000000A8008000FFFFFFFF0000000001000000A8008000FFFFFFFF0000000002000000A8008000FFFFFFFF0000000003000000A8008000FFFFFFFF37
:403400000000000004000000A8008000FFFFFFFF0000000005000000A8008000FFFFFFFF0000000006000000A8008000FFFFFFFF0000000007000000A8008000FFFFFFFFE6
:403440000000000008000000A8008000FFFFFFFF0000000009000000A8008000FFFFFFFF000000000A000000A8008000FFFFFFFF000000000B000000A8008000FFFFFFFF96
:40348000000000000C000000A8008000FFFFFFFF000000000D000000A8008000FFFFFFFF000000000E000000A8008000FFFFFFFF000000000F000000A8008000FFFFFFFF46
:4034C00000000000F8B500BFF8BC08BC9E4670474D0000004D170000F8B500BFF8BC08BC9E46704729000000F83400000881FF1F500000004001000000000000320000005E
:403500004B000000640000007D0000009600000040000000450000005000000055000000600000003C00000046000000500000005A000000640000000000E02EC05D000084
:403540001800000000366E0100000000000000000000000000000000000000000000000000000000000000000000000000000000000000000000000000000000000000008E
:40358000000000000000000000000000000000000000000000000000000000000000000000000000000000000000000000000000000000000000000000000000000000000B
:4035C00000000000000000000000000000000000000000000000000000000000000000000000000000000000000000000000000000000000000000000000000000000000CB
:40360000000000000000000000000000000000000000000000000000000000000000000000000000000000000000000000000000000000000000000000000000000000008A
:40364000000000000000000000000000000000000000000000000000000000000000000000000000000000000000000000000000000000000000000000000000000000004A
:020000040003F7
:0200000480007A
:40000000044F0040065200400464004007650040600001403B0101404B020140440301401E04014053050140640601404F070140670801404D0901403D0A01404B0B014069
:40004000490C0140440D0140400E0140390F01405414014053150140561601404D17014064180140421901405D1A01404F1B0140074001400E4101400842014005430140B4
:400080000A4401400B45014002460140024701400B48014013490140024C0140064D0140085001400251014001200A1B0D20161B10401C033410602164337C04810D840D7E
:4000C000860D890D2404270F28042B0F37083B088A0D002201010205041005010607087F090F0C050D020E780F09100313011408151F1607183A1A041B0B1C401D031E0780
:4001000020032110230B24012714280129082B022C012D03327F351F3E04404349FF4AFF4BFF4F0150185280580459045A045B045D225F016040624064406540668068801C
:400140006A806C806E8082028701920196019A029F01B002B401B701BE01C013C5ECC702C813C9FFCAFFCBFFCD83CE03CF01D018D401D804D904DA04DB04DC22DD22DF01E7
:40018000E040E240E440E540E680E880EA80EC80EE8000200180020803900780089809200A800B400D0A0F0810261101124419041E8420082120270228982A402FC03001D8
:4001C00032483310378038203A053B803D0842404308450447804D044F015504570C5D045E805F01724073808104842588048B808C028E01C01FC27FC40FCA0FCC1FCE4FC0
:40020000D053D6D0E20AE4010103020B040F0508070709400A010B070C030D0111051214137814101501160B180219221A091B051C081D7F1E02201F2110230724012501E3
:40024000280329032C012D3A2F04301F337F3F04580459045C015F018101840E85018630888089048A568D049301944696A99702982A99049A549C339D019E0CA0FFA10462
:40028000A440A501A613A904AA01AD01B2FFB503B704B980BF40D804D904DC11DF0100280406060A08100A200B020C100E820F20111412801440155017041A201B081E8021
:4002C0001F01200C21402220260828192B402D102E082FA53120328A3410351036823706380239243B803C203DC43E023F22411043108001821083808B029380950197404C
:400300009C889F10A120A340A50AA810A980AB40AC10AE04AF02C0F6C2F7C4FECAFFCCFFCEFFE680EA0C03010B031B011F022304270133073B08401449FF4AFF4BFF4F0124
:400340005018540159045A045B045C105D225F016040624064406540668068806A806C806E800510061007420A040B080C040E840F0214411540160A17081F802010210419
:4003800027102B902C162E022F08301032A0344035123684370838103B023C103D803E083F0240024280440246804D014F0454805680574059055B806D106F207402761A8A
:4003C000770481428301840885408610918092209302950497489B029CC99D109F04A260A308A54AA681A733AB10AD01B004B302C0F0C2F0C4F0CAF3CCFCCEF5D099D60B1B
:40040000E001E404E60AEA0C061008050A0A0B010C010E0212201408160518061C0F20012204260228012A022E2030203101361F3E01405349FF4AFF4BFF4F0150185280DB
:400440005401580459045A045B045C115D225F016040624064406540668068806A806C806E8083028410860187048804890F8A088C0F8F0892089310961897109A209B014D
:400480009C109E029F0FA03FA30FA50FA614AB08B110B50FB63FB888BE04BF11C053C5ECC702C813C9FFCAFFCBFFCD83CE03CF01D018D804D904DA04DC01DD02DF01E04055
:4004C000E240E440E540E680E880EA80EC80EE8000800224048005100602071009200A200B820C100FA11104128013011406150A1B881E411F402004212023802740284049
:4005000029102A242BB02C042F043002310A3220334038A0390E3B123F1041084508480249054C0251085D015E405F047402848086219159922093069504970898109B10F4
:400540009C829D159F80A080A220A340A50AA684A713B340B410B601B740C0E7C2FFC4FCCA07CC0FCE2FD042D218D6D0E6020401060807010C020E051180135614011533E1
:40058000160E170C180719461BA9214023132407250E2730280629FF2A012C032D2A2E042F54320F33FF3A08401649FF4AFF4BFF4F015018580459045A045D025F01604096
:4005C000624064406540668068806A806C806E808203860387018B028F109001911E92029401951E96069A039B109C029E019F1EA308A71EA801AA04AB04AF01B11EB20714
:40060000B701BA08BF41C013C5ECC702C813C9FFCAFFCBFFCD83CE03CF01D018D401D804D904DA04DB04DD22DF01E040E240E440E540E680E880EA80EC80EE800004028097
:400640000480062009410A280E200F0811101410160117201A201E20224224202730280529082A012B8C2D502E202F943285331134043711388839403B203C08410443401C
:400680004401474049054C045004510C59055A8079047A108601908091109208936094249504960298189A0A9D08A143A288A388A424A802AA20B044B101B320B540B61888
:4006C000C0ACC26FC4E2CAFFCCEFCE4ED01AD220D60BE810EA200201060109040A020C060D0411081201140417011A011B021E041F102004210425042604280629042C0109
:4007000031103206330E3401370139083E103F04580459045F018201850487018D048F0195019601970299019A049B0E9E03A105A505A601A905AA02AD01AF08B30FB60775
:40074000BA80BB08D420D604D804D904DB04DF01001402800302050109010A890B200C040E0910801188120A14101510181019201A201E011F80228A271028102B882C10B5
:400780002F9A311132453628371038A03D083E40480449105C025D445F20648065206701820283018480878088849080911092C8936094209502980C9D19A040A106A20494
:4007C000A30AA424A608A780A812A904AA20AC10AD80B340C01FC2EFC46FCAF7CC6FCE5CD6F0D8B0E82002FF0301040105CC0713089209FF0A600DA50E080F4A100D13B55C
:4008000014E21504183D1AC21B021C041D4D1EE01F922040221D23042401251A2760285D29A92AA22B542D022E0234FF35FF3E103F10580459045F0181048401850186023B
:40084000880189028A028C0F8D0290059102920A940695019A109B02A102A202A801A902AA04AC08AE05AF01B01FB106B301B902BF01D804D904DF01000801200302042271
:4008800005A1071009100A400B200D150F12104514441602170818801A401B011E08202021022510284429802B882D802E022F18300231103208344135013718388039284E
:4008C0003B213C023D183E403F10928893319402964098089A029B189C409D889E20A041A30AA420A701A804AC80AF12B120B301B440B601C0F7C2FEC4FBCAFDCCF7CEFFF4
:400900000330073009300D3011101360160117301D101F40212023182501270229012B062F30300131703304350837033B02580459045F0180018102840285188706891FA2
:400940008C088D028F1890029101951C9604970299019A029B1E9C039D0A9F10A002A504A608A912AB08AC02AD06B008B201B406B71FB80AB980D2F6D804D904DB04DF01C3
:400980000482062008080A200C800E480F201440164217041A801C041E281F12208022152301270129282A012B012C202D802E2030803201330834403614370138063A604A
:4009C0003D043E423F106E046F04740176027718810883108604870889048B098F10C0B0C2F4C4B0CA7FCCFBCEFFE020E280E404E640001101020304041005010C040E0A4D
:400A0000120114011501181019021B041C041E083001320234103507360C382039203F1040264403450D46B0480949FF4A7F4BFF4C424DA04E70500C580459045A045C01FF
:400A40005D015F0161096240630964306509820C830386028A0C8D018E018F06900492189303940C950197029A0C9B089C089D019E249F04A004A210A40CA502A701AA0CBC
:400A8000AB03B01CB220B402B508B601B707BA02BB80D804D904DC11DF010004014002C0040A0510060208480A800B040D020E050F1015041640171018201A861B291D2A30
:400AC0001E221F1020082408254027082F183104322033103691370838063A043B023D803E0240084118480449084B08521081428508860188408D01900491249316942804
:400B000096029708984099159A029D089E14A2A0A520A601A721A820AA10AB80AD10AE20B320B680C0FDC2FFC470CA60CCF6CE93D006D204E001E280E408E610EA02EE089C
:400B4000050206010A010B010D02180119021E01210229012D022E0130013302370139883E013F045280580459045B045C105D205F0181018202831E850A8604871088044C
:400B800089048D02900491189306940495019801991C9B029C089D3FA112A202A308A404A520A801A902AB18AC04AD06B002B20CB31FB401B720B828B988BE14C023C55206
:400BC000C803C9FFCAFFCBFFCC42CDA0CE70D008D110D804D904DA04DC12DD01DF01E148E240E348E480E548E680E748002001080240042808010A220B140D200E021080C6
:400C0000110412041340160217401A041B0A1D01210823012680271029102BA12C012E212F013001310832A0342039443A103B013D143F4042044308484049044B04600211
:400C400062407640831085088620874088108A01900491549221930294209708984099109B409C02A080A220A440A680A723AA04AB28B612C06EC2CFC48FCABFCC2FCE7F7C
:400C8000D006E004E6010001020E040105100602080409100A010C050D1010051101140415101601180119201A081F08211025022704280529022B042D01300F35073738CA
:400CC00039A03A023F5040634402450B470D481149FF4A7F4BFF4C424DA04E70500C5280580459045A045B045C015D205F01610962406309643065098240841E85018820EC
:400D00008A048E1094209602987E9C089E10A101A201AA30AD01AE28B101B27EB401B808B902C043C9FFCAFFCBFFCF01D018D280D804D904DA04DB04DD22DF01E040E2401F
:400D4000E440E540E680E880EA80EC80EE8001420220030804010501061207040A020B280F58128113201608180419081D0122012540270829022B022E022F1A3440350262
:400D8000361637043B083E083FD041044280440847084C204E08540472807740808081808B10914093689404960298089A0B9B209D089F40A10AA28EA308A424B604C0FFCC
:400DC000C277C44BCAF9CCF0CE72D063D220E480E84002010701120216011A022F013002340137013F40404345EC4702481349FF4AFF4BFF4D834E034F01501854015804DE
:400E000059045A045B045C025D225F016040624064406540668068806A806C806E8080018107840689028B058C048D0790049101930E95069602970199019A049B089C0162
:400E4000A406A503A704AA04B206B601B70FB880BB80BE40C014C505C720C821C9FFCAFFCBFFCC42CDA0CE70D008D110D420D604D804D904DA04DB04DC11DD10DF01E148BF
:400E8000E240E348E480E548E680E74803400502061209080A400B080E280F821420160818801A081D801E201F08224027012A802E0834203604370139083E023F90410455
:400EC00042C0458249054E2051045304570359055A805C015E145F406480658066208210844087488A048B018C408E209001931095089608982099829A9A9B409CC0A10A61
:400F0000A204A340A620A702AD40AE14B210B420B704C0B8C2FEC460CA48CCE0CEB2D093D6FBD8B0E440E610E8C031023240352037083B40CCF0CE103020320436808B0884
:400F400096809D209F08A020A502AC20AF40CC70EA40EE401280852096889D20A502A680C410E640632066089688A502D8C009081080141073807C408040C208C40CDC016F
:400F8000DE040C015D02B010B380B480B508C204D601EA04EC04EE0A98019D0298019D020302824084089688A502AA08AB10C040E240E680EE8012801640700874018280CA
:400FC000864088018D02A008A502AE04AF02C430DC80DE20E010E420E810EE1098019D021902780198019D02C608DE02000708070A060C050E0110071A061C0700FF01EFE8
:4010000040021D0001040000044DE0923D00C2025DA9A254920060B50DA5004A00FF0800E2000004001AFF6001CC001300000201000000FF0000FF0000000000000040045E
:401040001400000000EC020007FFFFFF008303011800F600000000000404040400120001400040004040800080008000800080000000000000000000000000000000000032
:401080007000007070000000000000003300000033003300000000000400000000000000004B4B0000000000204040004000000003000000000000001001010000000000B8
:4010C00000000000000000000000000000000000000000000000000000000000000000000000000000000000000000000000000000000000000000000000000000000000F0
:4011000000000000000000000000000000000000000000000000000000000000000000000000000000000000000000000000000000000000000000000000000000000000AF
:40114000000000000000000000000000000000000000000000000000000000000000000000000000000000000000000000000000000000000000000000000000000000006F
:40118000000000000000000000000000000000000000000000000000000000000000000000000000000000000000000000000000000000000000000000000000000000002F
:0200000490006A
:0400000000004005B7
:0200000490105A
:04000000BC90ACAF55
:0200000490303A
:020000000AA84C
:0200000490402A
:4000000000000000000000000000000000000000000000000000000000000000000000000000000000000000000000000000000000000000000000000000000000000000C0
:400040000000000000000000000000000000000000000000000000000000000000000000000000000000000000000000000000000000000000000000000000000000000080
:400080000000000000000000000000000000000000000000000000000000000000000000000000000000000000000000000000000000000000000000000000000000000040
:4000C0000000000000000000000000000000000000000000000000000000000000000000000000000000000000000000000000000000000000000000000000000000000000
:0200000490501A
:0C00000000012E12306900012E2C3B1173
:00000001FF