:400000000080002011000000E5060000E506000008B5044B1A6803F53F5302331A6000F063FB00BFFA46004010B5054C237833B9044B13B10448AFF300800123237010BD43
:400040002081FF1F00000000881D0000084B10B51BB108480849AFF300800848036803B910BD074B002BFBD0BDE81040184700BF00000000881D00002481FF1F0881FF1FC7
:400080000000000008B501F0B3F801F0E7F808BD2DE9F04383B00024019462B6FFF7F2FF264625461BE00125052418E0022416E0032414E00225052411E0032505240EE04E
:4000C000002601240BE000260425052407E00025012404E00025012401E000250324AC4B1B68642B06D9012000210A4600F008FA06250524052C00F24181DFE804F0032B38
:400100004F7DB6F100F0B2FC00F04AFE00F0B8FE00F064FA4FF47A7000F096FF2046294600F0D2F9012000F0D1FF012000F006FA012000F02BFA4FF47A7000F085FF002057
:4001400000F024FA002000F0F9F9002000F0BEFF0124C4E700200146024600F0D1F900F085FC00F01DFE00F08BFE2046294600F0ABF9002000F0AAFF002000F0C3FF01205F
:4001800000F0CCFF002000F0D5FF00F0B3FF002889D100F0A7FF002888D1A0E700F066FC00F0FEFD00F06CFE2046294600F08CF9002000F0A7FF002000F0B0FF012000F077
:4001C000B9FF002000F082FF00230193012000210A4600F095F900F0DDF815283FF668AF019B01330193019B0A2B3FF463AF4FF47A7000F029FFE9E700F038FC00F0D0FD31
:4002000000F03EFE2046294600F05EF9012000F079FF012000F082FF002000F08BFF002000F054FF00F066FF98B14FF47A7000F00BFF00F0C1F801287FF43FAF00F046FF31
:400240004FF47A7000F000FF002000F03FFF042445E700F047FF814600F09CF8B9F1000F18BF15287FF62CAF39E72046294600F02BF9012000F046FF002000F04FFF012044
:4002800000F058FF0136642E04D900F08FF88146002601E04FF0FF0900F094F800F09EF8074600F095F880460120B9B21FFA88F200F026F900F016FF00B9012400F01AFF19
:4002C00000B9032400F06CF8B0FA80F04009B9F1FF0F18BF40F0010000287FF4F4AEFEE600F0C4FB00F05CFD00F0CAFD2046294600F0EAF8012000F005FF012000F00EFFFD
:40030000012000F017FF002000F0FCFE4FF47A7000F09AFE012000F0F5FE4FF47A7000F093FE002000F0D2FE012D05D100F0E2FE00283FF4CCAED2E6022D0AD100F0DAFE12
:4003400000287FF4CCAE00F0CDFE00283FF4C2AEC5E6032D05D100F0CDFE00283FF4BDAEBDE6042D7FF4BBAE0120B9B21FFA88F200F0C6F8C82000F067FEB0E6012000F04F
:40038000C1FE012000F0CAFE012000F0D3FEA6E63C81FF1F014B1878704700BF4481FF1F014B9878704700BF4481FF1F014BD878704700BF4481FF1F014B1879704700BF2A
:4003C0004481FF1F014B5879704700BF4481FF1F014B9879704700BF4481FF1F014BD879704700BF4481FF1F30B583B004460D4601F07EFC002305E0E15C02AA1A4402F88F
:40040000081C0133072BF7DD40F201239D4224D005DCA62D15D0B5F5007F22D02BE040F266639D4215D040F226739D420DD040F266539D421FD1E278114B1A70E2795A7110
:4004400019E001220E4B5A7015E001220C4B9A7011E0E2780A4BDA700DE0E278084B1A7109E00022074B1A609DF80220044BDA719DF801209A7101F03FFC03B030BD00BF41
:400480004481FF1F3C81FF1F00B587B0039100238DF810308DF8113008228DF812208DF8133001AA059206E0C15C06AA1A4402F8141C0133DBB2072BF6D903A800F020FDB0
:4004C00007B05DF804FB00BF00B583B08DF800008DF8011000238DF802308DF803308DF804308DF805308DF806308DF80730684640F22661FFF7C8FF03B05DF804FB00BFC9
:4005000000B583B08DF800008DF801108DF8022000238DF803308DF804308DF805308DF806308DF80730684640F26671FFF7ACFF012000F089FD03B05DF804FB10B5044647
:400540004020002101F084F8052001F0F1F8012C0CD1772001F0ECF8772001F0E9F8772001F0E6F8772001F0E3F80BE0002001F0DFF8002001F0DCF8002001F0D9F800202C
:4005800001F0D6F801F0ACF810BD00BF10B504464020002101F0F8FA052001F069FB012C0CD1772001F064FB772001F061FB772001F05EFB772001F05BFB0BE0002001F0DE
:4005C00057FB002001F054FB002001F051FB002001F04EFB01F024FB10BD00BF08B500F091FE01F021F94020002101F031F8002001F09EF8002001F09BF8002001F098F828
:400600001F2001F095F81F2001F092F81F2001F08FF801F065F84020002101F019F8092001F086F8552001F083F8552001F080F8552001F07DF8552001F07AF8552001F04B
:4006400077F8552001F074F8FF2001F071F8FF2001F06EF8FF2001F06BF801F041F84020002101F091FA002001F002FB002001F0FFFA002001F0FCFA1F2001F0F9FA1F202F
:4006800001F0F6FA1F2001F0F3FA01F0C9FA4020002101F079FA092001F0EAFA552001F0E7FA552001F0E4FA552001F0E1FA552001F0DEFA552001F0DBFA552001F0D8FA28
:4006C000FF2001F0D5FAFF2001F0D2FAFF2001F0CFFA01F0A5FA0020FFF730FF0020FFF755FF08BDFEE700BF08B5104E104D16E029686B68AC68002204E051F8040B43F83F
:40070000040B0432A242F8D1E868002203E0002143F8041B04328242F9D11035013E002EE6D101F0F7FAFFF7B3FCFEE701000000481F000008B5124A124B1A60124A13682F
:4007400043F40073136000230AE0032B03D80F4A52F8231000E00E490E4A42F8231001332F2BF2D90C4B1A780C4B1A70094A0C4B1A6000F0D1F800220A4B1A6008BD00BFFF
:400780000004FA050CED00E014ED00E000000000E50600000080FF1FBC7600400481FF1F08ED00E00081FF1FFEE700BFF0B40022174611E050F82760F3B226F0FF0608E03B
:4007C00001EB420511F812406D78A5550132013BDBB2002BF4D10137292FEBD9F0BC7047064B1B78DBB203F00701054A11701B09013213704422034B1A707047CF010049C5
:400800006E5800407658004008B50A46002101F0B2FA08BD38B53B22344B1A80192334490B7002310A80334A13700922324B1A801B2202331A70062203F276231A7043F20D
:400840001332EE3B1A80023B05221A701B7843F2C82404E04FF4F07001F042FA013C24B1264B1B7813F0800FF4D114B90120FFF79BFF40224FF040231A70202203F50073F4
:400880001A704FF4E16222331A8041F25122023B1A80002419250CE0194B1B7803F0010343EA440404F003044FF4F07001F018FA013D0DB1032CEFD115B90320FFF774FF25
:4008C000104B4FF480721A8007221A7000220E490A704820023108701A700222033B1A700A4A137843F00703137038BD804000408240004086400040884000401042004069
:40090000254200400440004006400040A243004008B501F025FA08BD70B572B63C4A137843F00403137000240CE03A4963001A1952000A4423445B00C8589188FFF764FF17
:400940000134E4B2062CF0D900240BE03149A3001A1952000A44D06A116B0622FFF7D8FF0134E4B2002CF1D04FF090402A49FFF71DFF2A4A137843F0020313701032137834
:4009800043F002031370264C237843F040032370A2F58632513A137843F010031370214821490A22FFF7B4FF204821490A22FFF7AFFF204820490822FFF7AAFF1F48204984
:4009C0000822FFF7A5FF1F481F490822FFF7A0FF1E481F490822FFF79BFF1E481E490822FFF796FF1D4A137843F0080313701C4E01253570FFF70EFF81233370194B1D7078
:400A0000FFF7EEFE184821460E22FFF781FF70BDE84600408C1D0000A800004803500140A0430040005100402C120048C051004038120048F25100404412004812510040BE
:400A40004C1200482251004054120048325100405C1200486251004064120048224300400048004004000840B0430040064B1A7842F001021A701B7813F0010F01D101205E
:400A800070470020704700BF04A0004008B501F02FF9154A137843F0010313701032137843F00103137001F027F941F201020F4B1A60FFF7DBFF4FF480320D4B1A600D4AFB
:400AC000136843F0010313604FF4107300E0013B23B1084A126812F0010FF8D00BB9012008BD002008BD00BFA643004000A0004000E100E010A0004010F4004F07D1064BF1
:400B000018801B889BB2834203D001207047022070470020704700BF16A0004050B90D4B5A7802F0EF025A705B7813F0100F0CD001207047074B5A7842F010025A705B78CA
:400B400013F0100F03D101207047002070470020704700BF14A0004030B4841EE4B20D2C28D88C1EE4B2052C02D92BBB012925D1032A25D8824225D88A4225D8164C6578AC
:400B800005F0F005284360706478E4B284421DD10BB9002000E002204B01DBB29200D2B2134303430C4A13701278D2B29A420FD001200EE002200CE002200AE0022008E0A4
:400BC000022006E0022004E0022002E0012000E0002030BC704700BF14A0004050B90D4B1A7802F0EF021A701B7813F0100F0CD001207047074B1A7842F010021A701B785E
:400C000013F0100F03D101207047002070470020704700BF14A0004050B90D4B1A7802F0FE021A701B7813F0010F0CD001207047074B1A7842F001021A701B7813F0010F73
:400C400003D101207047002070470020704700BF14A00040044B18801B889BB2834201D0012070470020704704A0004003785B01214A416841F08011995003785B01991849
:400C80009A5802F07F12436823F080139A4228D183680B610278184B03EB421319698268914220D1C2685A610278134B03EB42135969C268914218D14FF0FF329A61027865
:400CC0000D4B03EB42139A69B2F1FF3F0FD10022DA610278084B03EB4213DB694BB101207047012070470120704701207047012070470020704700BFA0A000400178090117
:400D0000114A436843F4000343F008038B5003781B0199189B580D4A1A40436823F4000323F008039A420BD183684B600278064B03EB02135A6883689A4203D0012070473B
:400D4000012070470020704720A00040F7007F0038B5002409E004EB44039B000E481844FFF7CCFF28B90134E4B2072CF3D9002500E001254DB10DE0084800EB0410FFF70A
:400D800075FF30B90134E4B200E000240F2CF3D900E00125284638BDC41D0000241E000008B500F0A5FF324A137843F0010313701032137843F00103137000F09DFF2D4AD8
:400DC000137803F0FE0313704FF4F05300E0013B23B1284A127812F0010FF8D1002B3CD04FF48032244B1A601020244900F042F91020072100F052F90220FFF77DFE88B960
:400E0000FFF78CFE80B90A20032100221346FFF7A3FE58B9FFF7E2FE50B9FFF7FDFE48B1012308E0012306E0012304E0012302E0012300E0002393B9FFF78AFF88B941F235
:400E40000100FFF707FF70B90A4B00221A701B7813F0010F09D0012008BD012008BD012008BD012008BD012008BD002008BD00BFA643004010A0004080E100E0E90E000059
:400E800008B5074B1B7813B9FFF78AFF00E0002020B90122024B1A70FFF7F8FD08BD00BF4C81FF1F38B510220C4B5A700125002410E00B4B1B881D4208D06301094A9B5CC0
:400EC00013F0200F02D0204600F088F86D00ADB20134E4B20F2CECD938BD00BF00A0004008A00040A0A0004008B5044B5B7813F0100F01D0FFF7D6FF08BD00BF00A0004084
:400F0000F0B5012100265DE017F0030F4DD12F4B9B783B4249D103790BB14FF40013417931B92B4901EB0211046864054C6007E043F48013264901EB02110468E4004C60EB
:400F400090F806E0BEF1070F02D843EA0E4E01E043F4002EC3790BB14EF0040E00230FE01B4901EB0214032B02D9C3F10B0101E0C3F103018568ED5C21440D720133DBB298
:400F80008179994201D9072BEAD94FF48034114B1C6011010E4D4EF4000343F008034B5101234B510C4B1C6000217B00DFB231B10132D2B201E001270022072AA4D919B136
:400FC0000136F6B2022EF6D90846F0BD08A0004020A0004080E100E000E100E0F0B58BB04701174EBC19BB5D13F0010F26D0A37813F0100F03D063684FEAD30C02E063680B
:401000004FEA535C02ADA646BEE80F000FC59EE80F0085E80F00002306E0E218117A0AAA1A4402F8281C0133072BF6DD68466146FFF7DAF9BB5D43F00103BB550BB0F0BD97
:40104000A0A0004001BE704710B5044605E0084B186800F045FEA4F50044B4F5004FF6D8034B586800FB04F000F03AFE10BD00BF0C81FF1F70B504460E46074B1D681F28A0
:4010800002D90020FFF7DEFF04F01F04103455F8240045F8246070BD08ED00E038B504460D46072902D90020FFF7CCFF1F2C02D90020FFF7C7FF04F01F0000F1604000F5C2
:4010C00064406D01EDB2057038BD00BF044A137803F0BF03800100F0400018431070704710510040024B1878C0F34000704700BF31510040024B187800F00100704700BF58
:4011000031510040044A137803F0BF03800100F0400018431070704700510040044A137803F0DF03400100F0200018431070704700510040044A137803F0EF03000100F0BA
:40114000100018431070704700510040024A137843F080031370704774640040014B1870704700BF85650040014B1878704700BF6565004008B50146014800F0C1FD08BDCD
:4011800024640040024B186820F07F40704700BF4464004008B50146014800F0B1FD08BD0464004008B501E0FFF7ECFFFFF7DCFF10F0080FF8D108BD10B50B4C2046FFF7A8
:4011C000D9FF2046FFF7E6FF00F092FD074A137843F01003137000F08FFDFFF7E3FF0120FFF7BCFF10BD00BF1FBF03009565004008B5054B1B7823B9FFF7DEFF0122024B26
:401200001A70FFF7A3FF08BD4D81FF1F08B500F06FFD044A13680133136000F06DFDFFF7A3FF08BD3C81FF1F014B1B68D865704708ED00E04001C0B2014B1870704700BF2B
:4012400007E400E08022014B1A60704700E100E08022014B1A60704780E100E008B5FFF7F7FF0448FFF7E0FF0720FFF7E3FFFFF7E9FF08BD0D12000038B50024144B1C70DC
:40128000012503F20F131D7000F032FD114A137843F01003137000F02FFD0F220E4B1A70082210331A700D4B1D6020460721FFF7F5FE20460A49FFF7DDFE1022094B1A7089
:4012C000094B1C70094B1C70094B1C7038BD00BF77640040966500402164004080E100E02D1300005081FF1F5681FF1F5881FF1F5481FF1F024A137843F0020313707047E7
:401300007764004008B5074B1B7823B9FFF7B4FF0122044B1A70FFF7EDFF0122024B1A6008BD00BF4E81FF1F00E100E038B5AB4B1C78E4B2AA4B1B7813F0400F00F07881A1
:4013400014F0010F00F04081A54B1B78453B052B00F23781DFE813F006009200350135010600F80004F0DF0504F00A04082C50D19B4B1B78DBB2452B3DD19A4B1B7813F0D1
:40138000FF0F16D0984B1B681B78DBB2974A13700622974B1A70FF22653B1A70002240331A700122934B1A7046228D4B1A702C460AE1914B1B7813F0020F0CD08F4A1378DC
:4013C00043F00A0313706022854B1A7001228C4B1A602C46F8E08B4A137843F0200313705222834B1A70FF22653B1A70002240331A702C46E8E002227D4B1A70FF22653BB0
:401400001A70002240331A704A22754B1A702C46DAE00A2C2DD1794A137843F0A0031370754B1B7813F0020F13D06D4B1B7813F0080F01D0092300E00A23704A11780B43FC
:4014400013706022664B1A7001226D4B1A602C46BAE06C4A137843F0200313705222644B1A70FF22653B1A70002240331A702C46AAE00020FFF7E6FD2C46A5E014F0020F99
:401480003DD15C4B1B78574A1278DBB2934216D2584A1378DBB254490968CB5CDBB253490B700621524B1970FF21653B197000214033197013780133DBB2137084E04E4B5D
:4014C0001B7813F0020F0BD04C4A137843F00A0313706022424B1A700122494B1A6073E0484A137843F0200313705222404B1A70FF22653B1A70002240331A7064E03E4BB3
:401500001B7813F0020F0BD03C4A137843F09A0313706022324B1A700122394B1A6053E0384A137843F0200313705222304B1A70FF22653B1A70002240331A702F4A13781B
:4015400043F0900313703FE02F4A1378DBB22F49086826490978C9B2C15413780133DBB2137013782A4A1278DBB2934209D202221F4B1A70FF22653B1A70002240331A70F3
:4015800022E01D4B1B7813F0020F0BD01B4A137843F0090313706022114B1A700122184B1A6011E0174A137843F02003137012220F4B1A70FF22653B1A70002240331A70ED
:4015C00002E00020FFF73EFD14F0200F38D0044B1B7813F0080F1DD001231CE0666500405081FF1F5581FF1F6481FF1F02640040776400405481FF1F6081FF1F5681FF1FDB
:4016000080E100E0866500405881FF1F5C81FF1F5781FF1F02230B4A11780B4313700A4A137803F0DF0313701022084B1A7038BD064B1B7813F0100F02D11022034B1A7064
:4016400038BD00BF5681FF1F866500405081FF1F1E4B1B78DBB2102B32D11D4B1B7813F0100F2FD101221B4B1A609040C0B221B110434922154B1A7002E04522134B1A70D3
:40168000154B1870822275331A70FF22653B1A70002240331A70114B1B7813F0FF0FFAD10B4B1B7813F0010FFAD0094B1B7803F00A030A2B08D11022044B1A700320704797
:4016C0000220704701207047002070475081FF1F6665004080E100E002640040126400400F4B1B7813F0040F17D052220D4B1A70FF22653B1A70002240331A700A4B1B7839
:4017000013F0FF0FFAD11022084B1A70044B1B7813F0210FFAD0002070470220704700BF6665004077640040126400405081FF1F164B1B7813F0040F26D0154B1870062295
:4017400075331A70FF22653B1A70002240331A70104B1B7813F0FF0FFAD146220E4B1A700A4B1B7813F0010FFAD0084B1B7813F0020F04D16022084B1A700020704760226C
:40178000054B1A7003207047022070476665004002640040126400405081FF1F38B50024144B1C700125EC3B1D7000F0A1FA124A137843F01003137000F09EFA0F220F4B22
:4017C0001A70082210331A7002220D4B1A6028460721FFF763FC28460A49FFF74BFC1022094B1A70094B1C70094B1C70094B1C7038BD00BF7A6500409E64004023640040FD
:4018000080E100E0511800006881FF1F7481FF1F6D81FF1F7581FF1F024A137843F00203137070477A65004008B5074B1B7823B9FFF7B4FF0122044B1A70FFF7EDFF022233
:40184000024B1A6008BD00BF4F81FF1F00E100E038B5B04B1C78E4B2AF4B1B7813F0400F00F0828114F0010F00F04981AA4B1B78453B052B00F24081DFE813F0060096006B
:401880003E013E010600FF0004F0DF0504F00A04082C53D1A04B1B78DBB2452B3FD19F4B1B7813F0FF0F17D09D4B1B681B78DBB29C4A137006229C4B1A70FF22A3F5B57305
:4018C0001A70002240331A700122984B1A704622914B1A702C4612E1954B1B7813F0020F0CD0944A137843F00A03137060228A4B1A700222904B1A602C4600E18F4A1378DC
:4019000043F0200313705222874B1A70FF22A3F5B5731A70002240331A702C46EFE00222814B1A70FF22A3F5B5731A70002240331A704A22784B1A702C46E0E00A2C2ED10F
:401940007C4A137843F0A0031370794B1B7813F0020F13D0704B1B7813F0080F01D0092300E00A23734A11780B43137060226A4B1A700222704B1A602C46C0E06F4A137876
:4019800043F0200313705222674B1A70FF22A3F5B5731A70002240331A702C46AFE00020FFF750FB2C46AAE014F0020F3FD15F4B1B785A4A1278DBB2934217D25B4A1378AB
:4019C000DBB257490968CB5CDBB256490B700621554B1970FF21A3F5B573197000214033197013780133DBB2137088E0504B1B7813F0020F0BD04F4A137843F00A0313706A
:401A00006022454B1A7002224B4B1A6077E04B4A137843F0200313705222434B1A70FF22A3F5B5731A70002240331A7067E0404B1B7813F0020F0BD03E4A137843F09A0339
:401A400013706022344B1A7002223B4B1A6056E03A4A137843F0200313705222324B1A70FF22A3F5B5731A70002240331A70314A137843F09003137041E0314A1378DBB20E
:401A80003049086827490978C9B2C15413780133DBB2137013782C4A1278DBB293420AD20222214B1A70FF22A3F5B5731A70002240331A7023E01E4B1B7813F0020F0BD092
:401AC0001C4A137843F0090313706022124B1A700222194B1A6012E0184A137843F0200313701222104B1A70FF22A3F5B5731A70002240331A7002E00020FFF7A3FA14F0D4
:401B0000200F39D0044B1B7813F0080F1ED001231DE000BF6E6400406881FF1F7681FF1F7881FF1F006400407A6500407581FF1F7781FF1F7481FF1F80E100E08E640040EB
:401B40006D81FF1F7081FF1F6C81FF1F02230B4A11780B4313700A4A137803F0DF0313701022084B1A7038BD064B1B7813F0100F02D11022034B1A7038BD00BF7481FF1F86
:401B80008E6400406881FF1F204B1B78DBB2102B35D11F4B1B7813F0100F32D102221D4B1A604000C0B229B140F001004922174B1A7002E04522154B1A70174B1870822223
:401BC00003F5BD731A70FF22A3F5B5731A70002240331A70114B1B7813F0FF0FFAD10C4B1B7813F0010FFAD0094B1B7803F00A030A2B08D11022054B1A700320704702201A
:401C00007047012070470020704700BF6881FF1F6E64004080E100E000640040106400400F4B1B7813F0040F18D052220D4B1A70FF22A3F5B5731A70002240331A700A4BAD
:401C40001B7813F0FF0FFAD11022084B1A70044B1B7813F0210FFAD000207047022070476E6400407A650040106400406881FF1F174B1B7813F0040F28D0164B1870062257
:401C800003F5BD731A70FF22A3F5B5731A70002240331A70104B1B7813F0FF0FFAD146220E4B1A700A4B1B7813F0010FFAD0084B1B7813F0020F04D16022084B1A700020C0
:401CC00070476022054B1A7003207047022070476E64004000640040106400406881FF1F0230800803D000BF01380046FCD17047EFF3108072B6704780F31088704700BF8C
:401D0000CBB20370C1F307234370C1F307418170704700BF0E4B70B51E460E4C0025E41AA410A54204D056F8253098470135F8E700F0F8F8084B094C1E46E41AA410002597
:401D4000A54204D056F8253098470135F8E770BD301F0000301F0000301F0000381F000010B5431E0A44914204D011F8014B03F8014FF8E710BD03460244934202D003F808
:401D8000011BFAE77047000000000000004F00400C0040510040200000000140001000140140000800400140000A004C0140000200500140200000006052004024120048FA
:401DC0000600000000000000000001000000C0C401000000000008000000C0EC0200000000000000000000000300000000000000000000000400000000000000000000009A
:401E000005000000000000000000000006000000000000000000000007000000000000000000000000000000A8008000FFFFFFFF0000000001000000A8008000FFFFFFFF47
:401E40000000000002000000A8008000FFFFFFFF0000000003000000A8008000FFFFFFFF0000000004000000A8008000FFFFFFFF0000000005000000A8008000FFFFFFFFC4
:401E80000000000006000000A8008000FFFFFFFF0000000007000000A8008000FFFFFFFF0000000008000000A8008000FFFFFFFF0000000009000000A8008000FFFFFFFF74
:401EC000000000000A000000A8008000FFFFFFFF000000000B000000A8008000FFFFFFFF000000000C000000A8008000FFFFFFFF000000000D000000A8008000FFFFFFFF24
:401F0000000000000E000000A8008000FFFFFFFF000000000F000000A8008000FFFFFFFF00000000F8B500BFF8BC08BC9E4670474D00000035070000F8B500BFF8BC08BC50
:401F40009E46704729000000581F00000881FF1F1800000060000000000000000000E02EC05D00001800000000366E0100000000000000000000000000000000000000001F
:401F80000000000000000000000000000000000000000000000000000000000000000000000000000000000000000000000000000000000000000000000000000000000021
:401FC00000000000000000000000000000000000000000000000000000000000000000000000000000000000000000000000000000000000000000000000000000000000E1
:4020000000000000000000000000000000000000000000000000000000000000000000000000000000000000000000000000000000000000000000000000000000000000A0
:402040000000000000000000000000000000000000000000000000000000000000000000000000000000000000000000000000000000000000000000000000000000000060
:020000040003F7
:0200000480007A
:40000000024F00400452004008640040036500406D00014036010140690201404E0301405C0401404C050140550601405707014063080140520901406B0A01404D0B0140DC
:400040006B0C0140570D01405D0E0140390F01406614014055150140611601404F1701406618014053190140621A01404F1B0140074001400A4101400B420140024301402D
:400080000B4401400A45014002460140024701400A48014011490140024C0140064D0140085001400251014001200A3610401C0334107C042004210F2204230F31083308DB
:4000C000840D8B0D850D870D880D01020410080109040A0E0C05102511021240140115021608180119021A021C10242526402701280429022A012C042E013070320F330793
:40010000380239083A083E013F044034440546DB480C49FF4A7F4BFF4C424DA04E70500C580459045A045F01610962406309643065098107850287058A148D018E188F0869
:400140009010910692019301943F95039704980499019A089B0E9C409D07A010A202A40FAA08AC40AE20B23FB30FB440B828BB08BE10C023C520C650C80AC9FFCAFFCBFF84
:40018000CC42CDA0CE70D008D110D804D904DA04DC11DD01DF01E148E240E348E480E548E680E74800100221070608420A280C080E840F02101515011618174018501D2017
:4001C0001F082020210422042604271028042B20301131043640371638203A013C803D013E0840404104452849404F025140533056108002814488488E108F88C0C7C2FFCF
:40020000C4F7CA06CCF7CED5D063D208E001E60200010301052A07540DFF10021146120413A9154017131C011D0E1F30200221332204230C25802756340737FF38203E1007
:400240004042440545D0470B481249FF4A7F4BFF4C424DA04E70500C580459045A045C105D015F01610962406309643065098328851E860189088B108C01900193309401D0
:400280009710980199019C049D7EA004A101A340A404A520A702A802AC01AD20AF04B003B204B301B57EB80AB928BE01BF04C034C505C620C809C9FFCAFFCBFFCC42CDA0D3
:4002C000CE70D008D110D280D804D904DA04DB04DD20DF01E148E240E348E480E548E680E74802010320074008560D400E800F02100112A01320150118601D2020182702ED
:4003000028522D012E04300532A033803640370638203A013B043C803E083F01405045224B044D804F015220560472408201830184048C028D048E408F0293209420950177
:4003400096049B289C559D049E099F46A204A3A9A440A508A660A740AB40AC10AD40AF20B410C015C29FC41FCACBCCDFCED7D0A3D210E001E204E402E808EA02EE0A040291
:400380000A020B080E021201130117021A021B01260127042A023108330434023502360137013E103F40405649FF4AFF4BFF4F01501852805401580459045A045B045C12CB
:4003C0005D225F016040624064406540668068806A806C806E808008830287088804890F8C0290029308970498029B0F9E019F01A002A402A50FA808AB0FAC08B007B10FD7
:40040000B408B822BE01BF01C056C9FFCAFFCBFFCD83CE03CF01D018D804D904DA04DC01DD02DF01E040E240E440E540E680E880EA80EC80EE800004020B05100742081006
:4004400009100A400E800F091020132015A1170419201B401D321E041F20201422422320274028102F2830203208330236C0372638103C203D233E093F0841064280430832
:40048000480C4B404C084F405A825B08734083088B10918092409321950196049A049B0A9D809E089F44A020A204A30AA440A50AA640A740A820AC55B410C0D7C2DAC4F6C5
:4004C000CA62CCF7CEE4D23CD60BEA0BEE0B0001030108020C010F021308170318011E011F012001240127042B0132033308350738083B203E04405345EC4702481349FFEE
:400500004AFF4BFF4D834E034F015018580459045A045C105D025F016040624064406540668068806A806C806E80803D82C285028608870188408A1D8B038C928E6090E2D7
:40054000910193049404950196E097029AFF9C0D9D019F06A05DA2A2A303A401A703A801AE02B4FFB707BB80BE10D2F6D804D904DB04DC10DD10DF01010202100305040845
:4005800005120612070309220A200B090F09100A110212401308164017041B201D0822402608270428102A012F243102324834083681370438143C803D02450449804A0126
:4005C0004D014F4454045504570869106B1070887101722573088442850286019014910892209341981099209A859B029D809F04A121A204A304A454A508A688AA10AB04DB
:40060000AC40AD10AE01AF02B201B720C0DFC2CFC43FCA63CCDBCE96D040D210E00AE802EA08EC02EE040001030207B50B010C010D041102140115A91754180119CC1B13BB
:400640001DFF1E02211A2360240125A5274A294D2B922E012F0431FF36033F01405649FF4AFF4BFF4F015018580459045A045C015D025F016040624064406540668068802D
:400680006A806C806E8082088401889289018A608C5D8EA28F02900D930194E298019C3D9D019EC2A101A202A404A501A6E0A901AAFFAC40AE1DB103B2FFBE04C056C9FFEF
:4006C000CAFFCBFFCD83CE03CF01D018D280D804D904DA04DB04DD22DF01E040E240E440E540E680E880EA80EC80EE80000801100280030105800780080A0A060C080E0952
:400700001080116213081410160218101F80210122012740280829052C082D802E022F923080320134903609378039903D853E203F80480249204C014D204F205B035D4C94
:400740005E40700387829110924093309410950296229708981A99099B149C209D049E069F4AA110A2C4A310A402A501A60AAA04AC14AD88AE08B004B508B640B702C09F0C
:40078000C2EFC4AFCAF7CCF9CEFCD23CE840EA20010E0330060209460A080BA910011206160419801B561C011D331E021F0C20012140220223132401252A2754280129FF05
:4007C0002F01300E35FF360138803A023E40405349FF4AFF4BFF4D834E034F015018580459045A045D025F016040624064406540668068806A806C806E80840886058A02D1
:400800008B028C068F0292209301940F98059A0A9B019C019E02A220A401A602A801AA04AE10B020B41FB502B701BE01BF40C053C5ECC620C80BC9FFCAFFCBFFCD83CE0318
:40084000CF01D018D401D804D904DA04DB04DC21DD22DF01E040E240E440E540E680E880EA80EC80EE80001003100508060608080A420C020D880E081110130A148417447A
:4008800019411A401C401E081F10211024082640280A29053240331034203502360239323D403F20422045104620471048024A044B104C024D414F04562057105C405D0184
:4008C0005F04808083108802940895329660970898089B149C209D479F0AA004A280A501A80CAC02AD31AF88B710C0E6C2FDC4FECA0FCCACCE35D042D218D6D0E020EC40F5
:40090000010202040518070609040A080D0A0E020F101106151F160F191C1A081B021C0F1D01220123202512260F2708280F29012B1E2D022F18311F3520360F39023E402E
:40094000403649FF4AFF4BFF4F015018580459045A045D025F016040624064406540668068806A806C806E80820B8310850789068B018C018D018E068F0E9401960499019F
:400980009B089C019E0AA107A20BA40AA502A601A705AA0BAB20AD03AF04B10FB408B510B607B720BA80BB02BE10C036C9FFCAFFCBFFCD83CE03CF01D018D804D904DA0414
:4009C000DD02DF01E040E240E440E540E680E880EA80EC80EE800002018005010640070A08080A020B020C840D500E2410841304144015061710180419801F802002220298
:400A0000234426102740284429042A402C822E042F043110340A3520374039203A083B423D223E484220462048084C084F20600262808101830485048E288F0291809202B7
:400A4000940495169620980899109C209D439E689F58A004A110A280A310A602AA02AB44AC80AD08AF09B201B408B702C0D9C2E5C47ECAFFCCF4CEFFD042D224E210E44275
:400A8000E810EC01010205040603070808010A060B020E030F0112101401151016041A031B101C021D031E092003230225022603280329032D042F2830083103330C340766
:400AC00035103610372039203A20403249FF4AFF4BFF4D834E034F01501854205604580459045A045B045D025F016040624064406540668068806A806C806E808201950102
:400B00009F01A101A601B201B701C036C620C7CEC838C9FFCAFFCBFFCD83CE03CF01D018D804D904DA04DC02DD02DF01E040E240E440E540E680E880EA80EC80EE800120CA
:400B400002010310050208180A411110124013081428152019201A421B011F08215823C02680281A29012A082C80308832103408368039163A013B404220432046204F203F
:400B80005404573259205B86608461408110848088028C088D108F02C017C20FC42ECA8FCC5ECE0FD046D220D60FD80DE240E640011203080504060109010D020F18110100
:400BC0001202131E153F1602180119201D02211C230225062801290A2B102D182F0630023120331F3401390A3E01404349FF4AFF4BFF4F0150185280580459045A045B044B
:400C00005C115D225F016040624064406540668068806A806C806E808203870188038C0390019206940196049A039C209E50A203A420A640A802AA09AE03AF01B007B210FF
:400C4000B301B460B608BA02C043C9FFCAFFCBFFCD83CE03CF01D018D401D604D804D904DA04DB04DC21DD22DF01E040E240E440E540E680E880EA80EC80EE800004052034
:400C80000642091A0C080D200E400F011008144015481608180C1A801B101C201D101E421F02201022012608284829202A402B102C02308831203201381039403A063D08E1
:400CC000410A450E5D815F04678070027102800481808309860887408A088C10914993049408968098489A469B089D10A088A138A412A601A702A880A980AA10AB10AC48C1
:400D0000AE08AF20B204B312B710C0D4C2FEC4F2CA1FCC0FCE4FD0C3D6D0D880E210E401E680EA04EE04000301050403050407010E020F10110413011505160119011B086C
:400D40001C021D011F0E200221052A022B102D012F0232033510370F3B803F10405349FF4AFF4BFF4D834E034F01501854205604580459045A045B045C115D125F016040CB
:400D8000624064406540668068806A806C806E8085028B028C01910194019501A101A901AD01B102B301B401B822B90ABE01BF04C053C5ECC702C813C9FFCAFFCBFFCD8310
:400DC000CE03CF01D018D401D804D904DA04DB04DC10DD22DF01E040E240E440E540E680E880EA80EC80EE800180068207200A200C400E100F20140816401A481E10209012
:400E00002680270A28402A402B042C402E802F08330534083680372139103A083D023F4841084508480249054C02510859055A805C805E085F12640265228012824085022E
:400E40008D508E808F04911993449408984899209AC69B159D10A080A121A204A30CA450A601A901AB04AC40AD02AE80B224C0B1C2A4C450CABDCCF3CED6D042D218D6FB15
:400E8000D8B0E805EE08003A010F02040440050206070709080809080A070B020C010D0110011301142215101605170B18101A071B0B1C031F14207F2103240325032801FC
:400EC00029012C052D1F2E78331F367F3E40405349FF4AFF4BFF4F0150185401580459045A045B045C105D225F016040624064406540668068806A806C806E80813A830485
:400F0000850189108B078D01910593789522970599409B079D03A108A307A501A97FAD03B77FBF40C053C9FFCAFFCBFFCD83CE03CF01D018D280D904DA04DB04DD22DF014B
:400F4000E040E240E440E540E680E880EA80EC80EE80041005080645074109040B100C500E020F9014851504168017041E0121402608280A29012A082C442D042E803104CA
:400F800032813310341035083741380839123B803C103D093F8040224222462048024C024E0259045B085D025E805F047002780179017B808A48911092429310958096251D
:400FC0009708989E99099A049B149C209D049F0AA110A2C0A3C0A484A60BA808AA24AF80B004B141C0F0C2F0C4F0CAFFCCFFCEFFD042D218D6D0ECA00002010203090602C7
:40100000070108CC0A130B0B0CA90E540F14104D110F129214FF1501180419101B0B1C1A1D031E602103220424A52501264A291F2AB52D082E012F0236FF371F3E404053DD
:4010400049FF4AFF4BFF4D834E034F01501852F6580459045A045B045D025F016040624064406540668068806A806C806E8089018B028F02910193049505970A99089B05D5
:401080009D019F02A106A50FAF10B51FC053C5ECC620C80BC9FFCAFFCBFFCD83CE03CF01D018D904DA04DD02DF01E040E240E440E540E680E880EA80EC80EE800008011022
:4010C0000280030108090A470B201080112013881703198021402302270828492A0A2D802E012F103104328133103440371A39983A013D103E404220462048064B104C02D3
:401100004D024F04562069086A2070847104720C7390820189048B408E018F089110924294089624978498089A029B109D029E289F0AA002A110A280A484A601A808AB1027
:40114000B101B306B601C00FC20FC40FCADFCCFFCE3FD042D218E880EC40338234823B808480CCF0CE10E6403240330236809780A780AB02AC02CC70EA20EE40128057107C
:4011800083109780A680A782AA40C410D440E680EE809780A782090810801502740478808901C208C40CDC01DE04E2040C015D028404A404A880B080B508C204D601EE091A
:4011C00098019D0298019D0203086620822087809780A782C040D880E220E610102015047C808020850487028B408C809780A702AF08C430DE20E080E210E440EC40980143
:401200009D021902780198019D02C608DE02000708070A060C070E0510071A071C0700FF01EF000023010000330000007000007070000000000000003300000033003300BF
:40124000000000000400000000000000004B4B00000000002040400040000000030000000000000010010100000000000000000000000000000000000000000000000000DF
:40128000000000000000000000000000000000000000000000000000000000000000000000000000000000000000000000000000000000000000000000000000000000002E
:4012C00000000000000000000000000000000000000000000000000000000000000000000000000000000000000000000000000000000000000000000000000000000000EE
:4013000000000000000000000000000000000000000000000000000000000000000000000000000000000000000000000000000000000000000000000000000000000000AD
:40134000000000000000000000000000000000000000000000000000000000000000000000000000000000000000000000000000000000000000000000000000000000006D
:0200000490006A
:0400000000004005B7
:0200000490105A
:04000000BC90ACAF55
:0200000490303A
:0200000006DC1C
:0200000490402A
:4000000000000000000000000000000000000000000000000000000000000000000000000000000000000000000000000000000000000000000000000000000000000000C0
:400040000000000000000000000000000000000000000000000000000000000000000000000000000000000000000000000000000000000000000000000000000000000080
:400080000000000000000000000000000000000000000000000000000000000000000000000000000000000000000000000000000000000000000000000000000000000040
:4000C0000000000000000000000000000000000000000000000000000000000000000000000000000000000000000000000000000000000000000000000000000000000000
:0200000490501A
:0C00000000012E12306900012E2337454C
:00000001FF